:0300000002138761
:10138700787FE4F6D8FD9060007F007E07E4F0A345
:0A139700DFFCDEFA7581230213DC8F
:0C000300000000000000000000000000F1
:0B1EBE00EF1FAC0670011E4C70F622F6
:101DF600AB07AA06EB1BAE0270011A4E600C7FAA57
:0B1E06007E05121EBE75D9AA80EA22DC
:100F0700907120E04480F07F057E00121EBEE4FF52
:100F1700FE121DF675A75575AC5C9071327450F0D2
:100F27009071307403F0907136742FF090715C7487
:100F370003F090715BE054FCF07F18EF2466FDE44A
:100F470034718D82F583E4F00FEFB433EE904011E6
:100F5700E4935407FF90711CE054F84FF09040174A
:100F6700E493547FFF90711DE054804FF090401040
:100F7700E493FF5401C43333335480FE907123E06C
:100F8700547F4EF0EFC313543F4440FFA3E0548017
:100F97004FF0904012E493FF540FFE907146E054D7
:100FA700F04EF0EFC4540FFF90714FE054F04FF044
:100FB700904013E493543FFF907140E054C04FF0CA
:100FC700904014E493907126F0904015E49390714B
:0B0FD70028F0904016E49390712AF07F
:010FE20022EC
:071EE700E475F0010201D6D1
:101A5300E5B154CF42B153A8BFD2AF75D102789C40
:101A6300E254E3F2E2441CF2E254FCF2E24401F2F7
:101A730008E2547FF2E24420F278A17401F2187470
:101A830076F2789CE2541FF2E244C0F243A840226B
:030021000210B713
:1010B700C0E0C0F0C083C082C0D075D000C000C0FF
:1010C70001C002C003C004C005C006C007789DE286
:1010D70020E70302116CE24480F23011069060377A
:1010E700E004F0906101121EE79060A3E0FEA3E028
:1010F700FFE4FCFD7BFF7AFFF9F8D31203244006D7
:101107009060A3121EE790603F120371EF2401FF66
:10111700E43EFEE43DFDE43CFC90603F1203899011
:1011270060F7121EE7C39060F8E094D09060F7E094
:1011370094074008E4F0A3F09060F6F09060FA128C
:101147001EE7C39060FBE094649060FAE09400406F
:1011570008E4F0A3F09060F9F09060A5121EE79004
:1011670060F4121EE7D007D006D005D004D003D014
:1011770002D001D000D0D0D082D083D0F0D0E032DE
:0D174100C113C1144160FC004260FD0000B6
:10000F00120371EF2401FFE43EFEE43DFDE43CFCEE
:01001F0022BE
:101A0E00E5B254FC42B253A9FED2AF75D104907127
:101A1E0000E054E3F0E0F0E054FCF0E04401F0901C
:101A2E0071057409F0907104745FF0907101E054C7
:101A3E007FF0E04420F0907100E0541FF0E044C0CD
:051A4E00F043A9012294
:03002400020E11B8
:100E1100C0E0C0F0C083C082C0D075D000C000C0A7
:0D0E210001C002C003C004C005C006C00728
:0E0E2E00907101E020E703020EECE04480F03A
:100E3C009060FCE004F0E0C394144023E4F0906074
:100E4C00E275F0011201D6C39060E3E09458906013
:0F0E5C00E2E094024009201606E4F0A3F0D2165B
:100E6B0030821620130F9060DE12000F9060DE129E
:0B0E7B000389121B4FD2138002C21328
:100E86009060FDE475F0011201D6C39060FEE09417
:100E9600149060FDE094004032E4F0A3F09060D23C
:100EA60012000F9060D2120389E47F587E02FDFC87
:100EB6009060D212037DC312033A400F20150C90A6
:0B0EC60060D212039500000000D2155E
:100ED10030951620140F9060CE12000F9060CE1244
:0B0EE1000389121BCAD2148002C21445
:100EEC00D007D006D005D004D003D002D001D0005A
:0B0EFC00D0D0D082D083D0F0D0E03204
:1019280090603A12037174302FF582E43460F583C5
:10193800229060BBE0FF242DF582E43460F5832219
:101948007D00EF75F00FA42400F9746035F0FA7B80
:101958000122E5822EF582E43583F58322E4F090B6
:101968006033E014F090000F22906039E4F090604A
:0319780038F02222
:0A1EC900E4906037F0C210D211223D
:0A1ED300C211E4906037F0C2102243
:101D920078C2E2543FF2E254FCF2E24440F2907123
:101DA20081E04404F0907175E04401F043AA20D22E
:0B1DB200AF75D60175D59F75D21122C8
:03004B000209BBEC
:1009BB00C0E0C0F0C083C082C0D075D000C000C002
:0D09CB0001C002C003C004C005C006C00783
:1009D8009060CDE4F0E5D420E503020AC0E5D7F045
:1009E800201204E0B4A509906033E0C394034003E7
:1009F800020ABD9060CDE0B4A508D2121219711296
:100A08001EC9906039E0B401089060CDE09060386C
:100A1800F0121928E06003020AC09060CDE0FF9050
:100A2800603A12037D90600075F00FEB1203C6EA7E
:100A380075F00FA42583F583C083C082906039E0E8
:100A4800FE04F0D082D08312195AEFF0906037E498
:100A5800F0A3E06063E0FFA3E06F705C906038E0B3
:100A6800FB90603A120371742D2F121940EBF0C2FB
:100A7800121219711219287401F0906033E004F011
:100A880090603A120371EF2401FFE43EFEE43DFD5D
:100A9800E43CFC90603A120389E47F03FEFDFC907D
:100AA800603A12037DC312033A400A90603A120377
:080AB8009500000000121ED39E
:100AC000D007D006D005D004D003D002D001D0008A
:0B0AD000D0D0D082D083D0F0D0E03234
:0D1E8B00E5D430E4FB8FD7E5D430E4FB2232
:100BF300E49060BBF0A3F0C219906037E0D3940A8D
:100C0300400F121ED3E4906039F0906038F0C212A6
:100C130022E49060BBF09060BBE0FFC39403400309
:100C2300020D0474302F121931E07003020CFB9093
:100C330060BBE075F00FA42401F582E43460F58312
:100C4300E0FE742D2F121940E06E601A9060BBE035
:100C53002430121931121965C083C082121948D089
:060C630007D00602044563
:100C6900E49060BDF09060BCF0A3F0121939E01473
:100C7900FE9060BDE0FDC39E5022EF75F00FA424E5
:100C890000F582E43460F583E5822D12195DE0FFF9
:100C99009060BCE02FF0A3E004F080CF9060BCE04E
:100CA900F0121939E0FEEF75F00FA424FFF582E484
:100CB900345FF58312195AE0FF9060BCE06F60025F
:020CC900D2193E
:100CCB0030191DC2199060BBE0FF2430121931128C
:100CDB001965C083C082121948D007D0061204458B
:100CEB009060BBE02434F582E43460F5837401F04A
:090CFB009060BBE004F0020C194A
:010D040022CC
:0F1E7C001201F99060C01203899060C0020371D7
:101D660078C3E24403F218E2440CF2786AE244785B
:101D7600F27591FF907123E05498F0E0441EF090C4
:0C1D860071227407F0439E7043994022C4
:101C03005399E0EF24FD60142402701E907123E0C9
:101C130054D8F0E0445AF0439904800E907123E0C5
:101C230054D8F0E0445BF04399017869E24448F208
:071C33007F017E00021DF697
:100027007869E24401F2786BE230E1FA7402F2AFE8
:1000370093EF75F010A4FFAEF0E594C4540FFDEFF5
:030047004DFF2248
:100FE300E49060BEF0A3F0A312039500000000E4B8
:100FF3009060C4F0A3F074FFA3F0A3F0E4A3F0F0B7
:101003001200279060BEEEF0A3EFF09060C8E0C33B
:10101300940240549060C4E0FEA3E0FF9060BEE001
:10102300FCA3E0FDD39FEC9E40089060C4ECF0A3CA
:10103300EDF09060C6E0FEA3E0FFC3ED9FEC9E5091
:101043000F9060BEE0FFA3E09060C6CFF0A3EFF087
:101053009060C012037D9060BEE0FEA3E0FFE4FC5D
:10106300FD1201ECA31203899060C8E004F0E0C311
:101073009414408C121E85C006C0079060C4E0FE25
:10108300A3E0FBAA06E4F9F8D007D006121E7CC041
:1010930006C0079060C6E0FEA3E0FBAA06E4F8D012
:1010A30007D006121E7C780412034B9060BEEEF04C
:0310B300A3EFF0B8
:0110B6002217
:101D3800A3F078E3E254FCF2E24401F2907192E4F9
:101D4800F0229060C8E004F0E0C3940822C2A4C264
:0E1D580096D2977F04FE22FFE0FEA807082225
:10187A00E4FF78D3E2543FF2E24440F290718DE4FF
:10188A00F0E254CFF2E24410F290718CE4F0121DAF
:10189A003AC297C29612181AEF702A7D0A7F8C12E2
:1018AA00123C7D017F8812123C7D017F8612123C18
:1018BA00E4FD7F8212123CE4FD7F8412123CE4FDB7
:0818CA007F8012123C0219C8D4
:101E1100E4FDEE25E0FEEF30E004EE4401FEEFC309
:091E210013FF0DEDB408EBAF0650
:011E2A002295
:0216D300AC0762
:1016D500E49060BCF0AF05121E11EC64816019EC5A
:1016E50064836014EC6485600FEC6487600AEC64C5
:0816F500896005EC648D70436F
:1016FD00E49060BDF0A3F0EC64816004ECB483066B
:10170D00EF547FFF8017EC64856004ECB48706EF1F
:10171D00543FFF8008ECB48904EF541FFFEFC4540D
:10172D000FFE9060BDF0EF540FFFA3F0EE75F00AC1
:03173D00A42FFFD7
:011740002286
:0514BA009060BCEFF0A2
:1014BF00E4A3F0121D38121D55121EBEE49060BE3B
:1014CF00F012152E9060BEE09060BC121D5F80027E
:1014DF00C313D8FC30E004D2A48002C2A47F047EE0
:1014EF0000121EBE12153840D878E3E254FCF27891
:1014FF00E0E24410F2E49060BEF09060BDE025E0C1
:10150F00F012152E30A4079060BDE04401F01215C3
:0E151F003840E7C296C297C2A49060BDE0FFBC
:10152D0022C2967F047E00121EBE22D2967F047EBA
:0F153D0000121EBE9060BEE004F0E0C3940822CE
:051E44009060BBEFF00F
:101E4900E4FE1214BAAE079060BBE0FFAD060216BD
:011E5900D3B5
:08154C009060C6EFF0A3EDF082
:10155400E4121D38121D55121EBEE49060C8F0122C
:1015640015D29060C8E09060C6121D5F8002C3135C
:10157400D8FC30E004D2A48002C2A41215C1121D0A
:101584004A40DCE49060C8F01215D29060C8E0FFD5
:101594009060C7E0FEA807088002C313D8FC30E0BF
:1015A40004D2A48002C2A41215C1121D4A40D9C299
:0C15B400967F047E00121EBEC297C2A4E7
:1015C000227F047E00121EBED2967F047E00121E71
:0C15D000BE22C2967F047E00121EBE22C6
:10181A001219C8D390607AE09433906079E0940802
:10182A005048C3A3E094D0906079E09407403B907D
:10183A00607BE0D3940C5032E0C39401402CA3E0C7
:10184A00D3941F5025E0C39401401FA3E0D39418FA
:10185A005018A3E0943C5012A3E0943C500C9060C2
:10186A0079E0B40708A3E0B4D0037F00227F012205
:05123C009060C2EFF01C
:10124100A3EDF0EF6480601D9060C2E0FF648260F6
:1012510014EF6484600FEF6486600AEF64886005B0
:05126100EF648C706CCD
:10126600E49060C4F0A3F09060C3E0FFC3940A402A
:1012760007EF75F00A84A3F09060C3E075F00A8466
:10128600AFF09060C5EFF09060C4E0FEC454F04F3C
:101296009060C3F09060C2E0FF64806004EFB482A7
:1012A600099060C3E0547FF080229060C2E0FF6442
:1012B600846004EFB486099060C3E0543FF0800C6C
:0C12C6009060C2E0B48805A3E0541FF063
:1012D200E4FD7F8E12154C9060C2E0FFA3E0FD1288
:0912E200154C7D807F8E02154C35
:101A93009060BBA3E02430FD7F8C12123C9060BDAC
:101AA300E0FD7F8812123C9060BEE0FD7F8612123B
:101AB3003C9060BFE0FD7F8412123C9060C0E0FD6B
:0F1AC3007F8212123C9060C1E0FD7F8002123CD6
:1019C8007F81121E4490607FEFF07F83121E449047
:1019D800607EEFF07F85121E4490607DEFF07F8778
:1019E800121E4490607CEFF07F89121E4490607B49
:1019F800EFF07F8D121E44EF24D0FEE43407906090
:061A080079F0A3CEF022EC
:101E5A0075AF3F8FAF75AEB975A402E5A530E1FB4A
:011E6A002255
:101C3A009060BC1203E975AF3F8FAF9060BFE0C3FD
:101C4A0094014022E5A530E0FB9060BCE475F00108
:101C5A001203D2120144F5A675AEB975A4019060BB
:071C6A00BFE014F080D52259
:101C71009060C91203E99060CCE06027AE070FEED7
:101C81002400FDE4343F8D82F583E493FE9060C926
:101C9100E475F0011203D2EE12015D9060CCE01404
:041CA100F080D322DA
:101CD70078E2E2543FF2E24440F2907191E0F01270
:101CE7001D92121CA5121A53121E98121EA5121D20
:101CF7006612187A121A0E121B8D7F017E00021DC2
:011D0700F6E5
:101B1100120F0775D95590715EE054FEF075D9BB6F
:101B2100121CD7D2A37FE87E03121DF6C2A375D97A
:101B3100AA12165C1211871215DC120D051214215E
:0E1B41001212EB120BF3120852120ADB80E0B4
:101B8D007B017A6079BB9060CC740DF0E4FF121C80
:101B9D00719060C7E0B4C5249060BB120371906072
:101BAD006C1203899060BF120371906070120389EB
:0C1BBD009060C3120371906074120389E1
:011BC90022F9
:101DDA00E4FF121E5A90607874C5F07B017A60792C
:0C1DEA006C9060BF740DF0E4FF021C3A26
:101AD20074059060BBF0E09060A8F0221202929030
:101AE20060BE120389E47B64FAF9F89060BE0203D7
:101AF200719060BDE024A7F582E43460F58322E4AE
:0F1B02007B64FAF9F822E4F9F89060700203713D
:02047100AB07D7
:10047300E49060BBF0A3F0A3F0A312039500000087
:10048300009060A774A5F09060A9EBF01203F2044A
:10049300CC0104D50204DE0304E70404EF0504F7EA
:1004A3000604FF07052208054109054F0B055E0CED
:1004B30005730E05B81005D51405E515060C1806C9
:1004C3001D19064A1A0000068F121AD2906088027C
:1004D3000547121AD2906089020547121AD290601A
:1004E3008A020547121AD290608D8058121AD29050
:1004F300608E8050121AD290608F80487406121A50
:10050300D4906080120371780812034B9060AAEFB5
:10051300F09060801203719060ABEFF002068FD30E
:10052300906085E094FF906084E094004006E4F0DE
:10053300A374FFF0121AD2906084E0A38006121A0B
:10054300D290608BE09060AAF002068F9060BB743B
:1005530007121AD7E47BE87A03800D9060BB740717
:10056300121AD7E47B4A7A06F9F890606C0205F612
:100573009060BB740B121AD7906079E09060AAF078
:10058300906079E0A3E09060ABF090607BE09060D6
:10059300ACF090607CE09060ADF090607DE09060A6
:1005A300AEF090607EE09060AFF090607FE090608E
:1005B300B0F002068F9060BB7406121AD790608663
:1005C300E09060AAF0906086E0A3E09060ABF00258
:1005D300068F9060BB7407121AD7121B01906070CC
:1005E30080119060BB7407121AD7E47BA1FAF9F863
:1005F300906070120371121ADE1202929060ACEBDB
:10060300F0121AED121B0180209060BB7406121ABF
:10061300D77BE87A03121B08800F9060BB74061225
:100623001AD77B4A7A06121B08121ADE120292901C
:1006330060ABEBF0121AED121B01121ADE120292DA
:100643009060AAEBF08045906084E0FEA3E0FF7C1D
:10065300027D6D12016F0C7DE8120181E4FCFD90B7
:1006630060BE120389E47FFFFEFDFC9060BE1203AF
:100673007DD312033A400A9060BE12039500000036
:10068300FF121AD2121AED9060AAEFF0E49060BD47
:10069300F09060BBE0FF9060BDE0C39F503190607D
:1006A300BBE014FF9060BDE0B5070B9060BCE0FFBA
:1006B300A3121AF6EFF0121AF3E0FF121E8B121AAE
:1006C300F3E0FF9060BCE02FF0A3E004F080C27F72
:0606D300017E00021DF68D
:101CA50078E3E2543FF278F2E254FCF278D3E2545E
:101CB500FCF218E2543FF2E254FCF278C3E2543FDE
:101CC500F2E254CFF278E2E254FCF278E0E2440129
:021CD500F222F9
:10165C00C3906102E094C8906101E094004067E49B
:10166C00F0A3F0208606906088F0804520870890D3
:10167C0060887401F0803A2090089060887402F0C1
:10168C00802F2093089060887403F08024209408A5
:10169C009060887404F0801920B0089060887405FC
:1016AC00F0800E90608820A7057406F0800374FF0C
:1016BC00F0D20120A00790609074018004E4906047
:0716CC0090F0A3F0D206220A
:10174E00C1154460CE000000004460D200000000CD
:0E175E004460D6000000004460DA0000000085
:0C1EB20012037D0201ECE4FDFC02037D44
:0D1E980078D3E254F3F278D0E24420F22235
:101BCA009060D61203719060D2121EB29060D61243
:101BDA0003899060D2120395000000009060DA1227
:101BEA0003719060CE121EB29060DA12038990607F
:091BFA00CE120395000000002248
:101187009060BB120395000000009060BF120395AA
:10119700000000007FF47E019060D6121EB8C312D3
:1011A700033A500620150302123B7F2E7E049060FF
:1011B700DA121EB8120207E47B03FAF9F812029258
:1011C7009060BF12038930150C9060BB1203950025
:1011D7000000008027E47F24FEFDFC9060BF12031F
:1011E7007D120207E47B0AFAF9F81202929060D6A0
:1011F70012037D1202929060BB12038990609F12C6
:1012070003719060BF121EB290609F1203899060B5
:10121700DA120395000000009060D61203950000D3
:101227000000C2159060BB120371906084EEF0A3BA
:04123700EFF0D204FE
:01123B002290
:061EEE009060E802037D94
:0D1EA50078C2E254CFF278C0E24404F22289
:101B4F009060E41203719060DE12037D1201EC903D
:101B5F0060E41203899060DE12039500000000120A
:101B6F001EEE9060E2E0FEA3E0FFE4FCFD1201EC4C
:0E1B7F009060E8120389E49060E2F0A3F02287
:1015DC00E47FF47E01FDFC121EEEC312033A5003AD
:1015EC0030166C30160C9060BB1203950000000096
:1015FC00801CE47F607EEAFDFC9060E412037D12A7
:10160C000207121EEE1202929060BB1203899060C8
:10161C00E4120395000000009060E81203950000AE
:10162C000000C216E47FFF7EFFFDFC9060BB12033E
:10163C007DC312033A400A9060BB1203950000FF71
:0F164C00FF9060BB120371906080120389D2037C
:01165B00226C
:04176C004160920046
:101D0800120371EF2401FFE43EFEE43DFDE43CFCD8
:101D1800221203711201F9E47B64FAF9F8C3020391
:101D28003A7F7F7E967D987C0012037DC302033A3A
:100D0500C39060A4E094E89060A3E09403400F30A2
:100D1500170C121DDAC217E49060A3F0A3F0E47F6C
:100D2500E87E03FDFC90609F121D3140717F187EA7
:100D3500C67D9A7C3B90606C121D31500C90606CA6
:100D4500121D0890606C120389906070121D295065
:100D55000C906070121D0890607012038990607489
:100D6500121D29500C906074121D089060741203B6
:100D75008990609F120371C3EF94E8FFEE9403FE20
:0E0D8500ED9400FDEC9400FC90609F12038939
:100D9300906092E004F0E0C3940A4004E4F0D217B8
:100DA30090609312037D90606C121D19500E906039
:100DB3006C120371906093120389D20890609712AA
:100DC300037D906070121D19500E906070120371B4
:100DD300906097120389D20990609B12037D906003
:100DE30074121D19500E90607412037190609B125F
:100DF3000389D20AC39060A6E094889060A5E0942A
:0D0E030013400AE4F0A3F0D208D209D20A8D
:010E100022BF
:0A1EDD009060BBE0FF75F00FA42237
:10085200E49060BBF0F09060BBE0FFC39403400300
:100862000209BA74342FF582E43460F583E0700330
:100872000209B19060BBE0FB75F00FA42402F5827F
:10088200E43460F583E01203F208A78008AC8B0819
:10089200B18C08BB8E08B694095298095699095A28
:1008A2009A0000095CD20002095CD20802095CD2FB
:1008B2000902095CD20A02095CD20BEB75F00FA4A3
:1008C2002403F582E43460F583E0FFE4FCFDFE7866
:1008D2000812035EEB75F00FA42404F582E4346081
:1008E200F583E07C002FFFEC3E906079F0A3EFF0FF
:1008F200121EDD2405F582E43460F583E090607B0E
:10090200F0EF75F00FA42406F582E43460F583E07D
:1009120090607CF0121EDD2407F582E43460F583DA
:10092200E090607DF0EF75F00FA42408F582E434C6
:1009320060F583E090607EF09060BBE075F00FA4FC
:100942002409F582E43460F583E090607FF0800A48
:10095200D20D8006D20E8002D20F906033E0D39483
:10096200004003E014F09060BBE0FF2434F582E421
:100972003460F583E4F0742D2FF582E43460F5835E
:10098200E4F074302FF582E43460F583E4F0FE7F06
:100992000FC006C007FD9060BBE075F00FA42400F5
:1009A200F9746035F0FA7B01D007D0061204459045
:0809B20060BBE004F0020858EC
:0109BA00221A
:100ADB00300032C2009060F6E0702A04F0FF12047E
:100AEB00717F021204717F07120471120BE87F09E8
:100AFB001204717F0B1204711219C87F0E1204714C
:100B0B007F10120471300107C2017F011204713092
:100B1B000207C2027F02120471300307C2037F0770
:100B2B00120471300405C204120BE8300507C2052C
:100B3B007F0912047130060CC2067F121204717FFA
:100B4B0013120471300802C208300907C2097F0B67
:100B5B00120471300A02C20A300B23C20B9060F9E7
:100B6B00E0701B78BB7C607D017B017A607979FE3C
:100B7B007F0712011E121A939060F97401F0300C6A
:100B8B0007C20C7F10120471300D19C20D90606CEE
:100B9B001203950000000090609F12039500000067
:100BAB0000121DDA300E19C20E9060701203950000
:100BBB0000000090609F12039500000000121DDAE8
:100BCB00300F19C20F906074120395000000009053
:100BDB00609F12039500000000121DDA227F08129D
:080BEB0004717F1A120471224B
:1017700044603F000000006028604300000000005B
:101780000000000000000000000000000000000059
:101790000000000000000000000000000000000049
:0B17A00000000041606B0041603E0053
:10197B00FFEE34F9FEE434FFFDE434FFFCE4FAF946
:10198B00F8120207E4229060BEE0FEA3E0FF22FA09
:10199B00F9F8120292AD07C322FFEE34FAFEE434DB
:1019AB00FFFDE434FFFCE42225E02443F582E4341C
:0D19BB0060F58322FDFC12037DC302033A98
:0417AE00AB07AA06D5
:1017B200E49060BEF0A312039500000000AE02AFF9
:1017C2000390606BE0FD04F0ED1219B3EEF0A3EFAD
:1017D200F090606BE0C394144002E4F0E49060BEC9
:1017E200F09060BF12037D9060BEE01219B3E0FE7C
:1017F200A3E0FFE4FCFD1201EC9060BF12038990AC
:1018020060BEE004F0E0B414D8E47B14FAF9F89076
:0818120060BF12037102029293
:101E6B00E4FDED1219B3EEF0A3EFF00DEDB414F2A7
:011E7B002244
:0806D9009060BEEEF0A3EFF00B
:1006E100E4FDC3EF94C5EE940B500A121991945591
:1006F100EE940150057DFF02084FD3EF94B9EE94BB
:10070100074005E4FD02084FD3EF9433EE94045003
:10071100057D6402084FD3EF94B9EE9407501FEFA3
:1007210094D0EE94064017121991EF24307B1212E7
:10073100197B7BE912199A74129DFD02084F121957
:1007410091D394D0EE9406502AEF9427EE9406406C
:10075100229060BEA3EF24D97B2212197B7BA912C0
:10076100199A74229DFDC39412400302084F7D1211
:1007710002084F121991D39427EE9406502DEF944D
:10078100A8EE940540259060BEA3EF24581219A449
:100791007B331219897B7F12199A74339DFDC3949F
:1007A10022400302084F7D2202084F121991D3946F
:1007B100A8EE9405502AEF944AEE940540229060E9
:1007C100BEA3EF24B61219A47B441219897B5E12D1
:1007D100199A74449DFDC3943350737D3302084FBD
:1007E100121991D3944AEE9405502DEF94BCEE94D6
:1007F1000440259060BEA3EF2444FFEE34FB1219A0
:10080100A87B541219897B8E12199A74549DFDC3C9
:100811009444503A7D448036121991D394BCEE949D
:1008210004502BEF9433EE940440239060BEA3EF69
:1008310024CDFFEE34FB1219A87B641219897B8940
:1008410012199A74649DFDC3945450027D54AF05EE
:010851002284
:10142100E49060BBF0A3F0A3F07F03121C0312143D
:0C143100AE1217AE9060BCEEF0A3EFF01E
:10143D0090603EE070327FF47E01A31219BF402808
:10144D0090603F120395000000001214AE121E6B47
:10145D009060FFE0FEA3E0FF9060BCEEF0A3EFF024
:08146D0012149890603E04F097
:10147500E47FE87E0390603F1219BF401590603FFE
:10148500120395000000009060BCE0FEA3E0FF128F
:021495001498A9
:10149700221206D99060BBEFF090608BF0E4906069
:1014A700BCF0A3F0D20522120FE39060FFEEF0A389
:0314B700EFF02231
:0217AB00C198E3
:1018D200E49060F4F0A3F09060BDE0906089F09035
:1018E20060BBE0FFA3E0906086CFF0A3EFF0D20CE4
:1018F200D202229060F01203719060EC12037D120A
:1019020002929060F01203899060F002037190607D
:10191200BBEEF0A3EFF09060BBA3E0FF121DBDA3EE
:06192200EFF09060F022DE
:101E2B007C0A7D50120418E47B0AFAF9F81202922C
:091E3B00E4FB7A10F9F8020292AE
:101DBD00EFC3949640047E6480107E007C007D64A9
:0C1DCD0012016F7D96120181AE07AF0677
:011DD90022E7
:1012EB00E49060BBF0A3F0A3F07F01121C039060AD
:1012FB00F012037DC000C001C002C003120FE3E473
:10130B00FCFDD003D002D001D0001201EC9060F0B4
:10131B001203899060EC120371EF2401FFE43EFE8F
:10132B00E43DFDE43CFC9060EC1203893018201284
:10133B0018F5121E2B1219101203950000000090C5
:10134B0060EC120395000000001218D2C21822C3E1
:10135B009060F5E094D09060F4E09407401D121873
:10136B00F5121E2B1219101203950000000090604D
:0B137B00EC120395000000001218D2D5
:011386002244
:1013A100021B11E493A3F8E493A34003F68001F236
:1013B10008DFF48029E493A3F85407240CC8C3334D
:1013C100C4540F4420C8834004F456800146F6DF1C
:1013D100E4800B0102040810204080901741E47E54
:1013E100019360BCA3FF543F30E509541FFEE49311
:1013F100A360010ECF54C025E060A840B8E493A3D8
:10140100FAE493A3F8E493A3C8C582C8CAC583CA02
:10141100F0A3C8C582C8CAC583CADFE9DEE780BEBA
:0117AD00003B
:10004E00E709F608DFFA8046E709F208DFFA803E94
:10005E0088828C83E709F0A3DFFA8032E309F60881
:10006E00DFFA8078E309F208DFFA807088828C83E9
:10007E00E309F0A3DFFA806489828A83E0A3F6089D
:10008E00DFFA805889828A83E0A3F208DFFA804C77
:10009E0080D280FA80C680D4806980F2803380104E
:1000AE0080A680EA809A80A880DA80E280CA8033B7
:1000BE0089828A83ECFAE493A3C8C582C8CCC5832F
:1000CE00CCF0A3C8C582C8CCC583CCDFE9DEE780FF
:1000DE000D89828A83E493A3F608DFF9ECFAA9F07E
:1000EE00EDFB2289828A83ECFAE0A3C8C582C8CCD4
:1000FE00C583CCF0A3C8C582C8CCC583CCDFEADEED
:10010E00E880DB89828A83E493A3F208DFF980CC4E
:10011E0088F0EF60010E4E60C388F0ED2402B40447
:10012E000050B9F582EB2402B4040050AF232345EE
:06013E00822390009E7375
:10014400BB010689828A83E0225002E722BBFE02B9
:09015400E32289828A83E49322EC
:10015D00BB010689828A83F0225002F722BBFE0181
:02016D00F3227B
:10016F00EF8DF0A4A8F0CF8CF0A428CE8DF0A42EA4
:02017F00FE225E
:10018100BC000BBE0029EF8DF084FFADF022E4CC62
:10019100F875F008EF2FFFEE33FEEC33FCEE9DEC2B
:1001A100984005FCEE9DFE0FD5F0E9E4CEFD22ED71
:1001B100F8F5F0EE8420D21CFEADF075F008EF2FBB
:1001C100FFED33FD4007985006D5F0F222C398FDAC
:0501D1000FD5F0EA2249
:1001D600C5F0F8A3E028F0C5F0F8E58215827002B4
:0601E6001583E038F02251
:0D01EC00EF2BFFEE3AFEED39FDEC38FC2262
:0E01F900C3EF9BFFEE9AFEED99FDEC98FC2201
:10020700E88FF0A4CC8BF0A42CFCE98EF0A42CFC96
:100217008AF0EDA42CFCEA8EF0A4CDA8F08BF0A414
:100227002DCC3825F0FDE98FF0A42CCD35F0FCEB73
:100237008EF0A4FEA9F0EB8FF0A4CFC5F02ECD3938
:0F024700FEE43CFCEAA42DCE35F0FDE43CFC22A5
:1002560075F008758200EF2FFFEE33FECD33CDCC5F
:1002660033CCC58233C5829BED9AEC99E5829840E2
:100276000CF582EE9BFEED9AFDEC99FC0FD5F0D6BF
:10028600E4CEFBE4CDFAE4CCF9A88222B800C1B9E9
:100296000059BA002DEC8BF084CFCECDFCE5F0CB27
:1002A600F97818EF2FFFEE33FEED33FDEC33FCEB60
:1002B60033FB10D703994004EB99FB0FD8E5E4F91B
:1002C600FA227818EF2FFFEE33FEED33FDEC33FC08
:1002D600C933C910D7059BE99A4007EC9BFCE99AFC
:1002E600F90FD8E0E4C9FAE4CCFB2275F010EF2F41
:1002F600FFEE33FEED33FDCC33CCC833C810D70741
:100306009BEC9AE899400AED9BFDEC9AFCE899F87B
:0E0316000FD5F0DAE4CDFBE4CCFAE4C8F9220E
:10032400EB9FF5F0EA9E42F0E99D42F0EC6480C850
:0603340064809845F022F0
:10033A00EB9FF5F0EA9E42F0E99D42F0E89C45F019
:01034A002290
:10034B00E8600FECC313FCED13FDEE13FEEF13FF90
:03035B00D8F122B4
:10035E00E8600FEFC333FFEE33FEED33FDEC33FCFD
:03036E00D8F122A1
:0C037100E0FCA3E0FDA3E0FEA3E0FF22FF
:0C037D00E0F8A3E0F9A3E0FAA3E0FB2203
:0C038900ECF0A3EDF0A3EEF0A3EFF022E7
:10039500A8828583F0D083D0821203AC1203AC12FD
:1003A50003AC1203ACE473E493A3C583C5F0C58322
:1003B500C8C582C8F0A3C583C5F0C583C8C582C8B2
:0103C5002215
:0C03C600A42582F582E5F03583F5832242
:1003D200F8E0FBA3A3E0F925F0F0E58215827002B4
:0703E2001583E0FA38F02258
:0903E900EBF0A3EAF0A3E9F02215
:1003F200D083D082F8E4937012740193700DA3A39A
:1004020093F8740193F5828883E4737402936860AD
:06041200EFA3A3A380DFAD
:10041800EC8EF0A4CCC5F0CCCDF8EFA4CEC5F02D71
:10042800FDE43CFCE8A42EC8C5F03DFDE43CFCEF2F
:0D043800A4FFE5F028FEE43DFDE43CFC22BD
:10044500EF4E6012EF60010EEDBB010B89828A83CE
:10045500F0A3DFFCDEFA2289F05007F709DFFCA9DB
:0C046500F022BBFEFCF309DFFCA9F02232
:00000001FF
