:030000000214D611
:1014D600787FE4F6D8FD9060007F007E07E4F0A3F5
:0A14E600DFFCDEFA75812302152BEE
:0C000300000000000000000000000000F1
:0B1F9700EF1FAC0670011E4C70F6221C
:101ECF00AB07AA06EB1BAE0270011A4E600C7FAA7D
:0B1EDF007E05121F9775D9AA80EA2229
:100FAD00907120E04480F07F057E00121F97E4FFD2
:100FBD00FE121ECF75A75575AC5C9071327450F052
:100FCD009071307403F0907136742FF090715C74E1
:100FDD0003F090715BE054FCF07F18EF2466FDE4A4
:100FED0034718D82F583E4F00FEFB433EE90401140
:100FFD00E4935407FF90711CE054F84FF0904017A4
:10100D00E493547FFF90711DE054804FF090401099
:10101D00E493FF5401C43333335480FE907123E0C5
:10102D00547F4EF0EFC313543F4440FFA3E0548070
:10103D004FF0904012E493FF540FFE907146E05430
:10104D00F04EF0EFC4540FFF90714FE054F04FF09D
:10105D00904013E493543FFF907140E054C04FF023
:10106D00904014E493907126F0904015E4939071A4
:0B107D0028F0904016E49390712AF0D8
:011088002245
:071FC000E475F0010201D6F7
:101B9700E5B154CF42B153A8BFD2AF75D102789CFB
:101BA700E254E3F2E2441CF2E254FCF2E24401F2B2
:101BB70008E2547FF2E24420F278A17401F218742B
:101BC70076F2789CE2541FF2E244C0F243A8402226
:0300210002115D6C
:10115D00C0E0C0F0C083C082C0D075D000C000C058
:10116D0001C002C003C004C005C006C007789DE2DF
:10117D0020E703021212E24480F230140690603729
:10118D00E004F09060F6121FC09060B0E0FEA3E0A6
:10119D00FFE4FCFD7BFF7AFFF9F8D3120331400623
:1011AD009060B0121FC090603F12037EEF2401FFCC
:1011BD00E43EFEE43DFDE43CFC90603F120396905E
:1011CD0060EC121FC0C39060EDE094D09060ECE035
:1011DD0094074008E4F0A3F09060EBF09060EF12FC
:1011ED001FC0C39060F0E094649060EFE094004005
:1011FD0008E4F0A3F09060EEF09060B2121FC09082
:10120D0060E9121FC0D007D006D005D004D003D09E
:10121D0002D001D000D0D0D082D083D0F0D0E03237
:0D17AB00C116C1174160F1004260F200005C
:10000F0012037EEF2401FFE43EFEE43DFDE43CFCE1
:01001F0022BE
:101B5200E5B254FC42B253A9FED2AF75D1049071E2
:101B620000E054E3F0E0F0E054FCF0E04401F090D7
:101B720071057409F0907104745FF0907101E05482
:101B82007FF0E04420F0907100E0541FF0E044C088
:051B9200F043A901224F
:03002400020DCEFC
:100DCE00C0E0C0F0C083C082C0D075D000C000C0EB
:0D0DDE0001C002C003C004C005C006C0076C
:0E0DEB00907101E020E703020EA9E04480F0C1
:100DF9009060F1E004F0E0C394144023E4F09060C3
:100E0900D775F0011201D6C39060D8E0945890606C
:0F0E1900D7E094024009201B06E4F0A3F0D21B9F
:100E280030821620160F9060D312000F9060D312F4
:0B0E38000396121C15D2168002C21691
:100E43009060F2E475F0011201D6C39060F3E09470
:100E5300149060F2E094004032E4F0A3F09060B8A4
:100E630012000F9060B8120396E47F587E02FDFCD7
:100E73009060B812038AC3120347400F201A0C90E4
:0B0E830060B81203A200000000D21AA9
:100E8E0030951620170F9060B412000F9060B412B8
:0B0E9E000396121C8ED2178002C217B0
:100EA900D007D006D005D004D003D002D001D0009D
:0B0EB900D0D0D082D083D0F0D0E03247
:101A6C0090603A12037E74302FF582E43460F58373
:101A7C00229060C4E0FF242DF582E43460F58322CB
:101A8C007D00EF75F00FA42400F9746035F0FA7B3B
:101A9C000122E5822EF582E43583F58322E4F09071
:101AAC006033E014F090000F22906039E4F0906005
:031ABC0038F022DD
:0A1FA200E4906037F0C213D214225D
:0A1FAC00C214E4906037F0C2132263
:101E250078C2E2543FF2E254FCF2E24440F290718F
:101E350081E04404F0907175E04401F043AA20D29A
:0B1E4500AF75D60475D5E175D21122EF
:03004B00020B9C09
:100B9C00C0E0C0F0C083C082C0D075D000C000C01F
:0D0BAC0001C002C003C004C005C006C007A0
:100BB9009060D2E4F0E5D420E503020CA1E5D7F07A
:100BC900201504E0B4A509906033E0C39403400301
:100BD900020C9E9060D2E0B4A508D215121AB51283
:100BE9001FA2906039E0B401089060D2E0906038AB
:100BF900F0121A6CE06003020CA19060D2E0FF9041
:100C0900603A12038A90600075F00FEB1203D3EA81
:100C190075F00FA42583F583C083C082906039E005
:100C2900FE04F0D082D083121A9EEFF0906037E470
:100C3900F0A3E06063E0FFA3E06F705C906038E0D0
:100C4900FB90603A12037E742D2F121A84EBF0C2C6
:100C590015121AB5121A6C7401F0906033E004F0A1
:100C690090603A12037EEF2401FFE43EFEE43DFD6D
:100C7900E43CFC90603A120396E47F03FEFDFC908D
:100C8900603A12038AC3120347400A90603A12037A
:080C9900A200000000121FACD4
:100CA100D007D006D005D004D003D002D001D000A7
:0B0CB100D0D0D082D083D0F0D0E03251
:0D1F6400E5D430E4FB8FD7E5D430E4FB2258
:100CBC00E49060C4F0A3F0C21D906037E0D3940AB6
:100CCC00400F121FACE4906039F0906038F0C21500
:100CDC0022E49060C4F09060C4E0FFC3940340032E
:100CEC00020DCD74302F121A75E07003020DC490F2
:100CFC0060C4E075F00FA42401F582E43460F58340
:100D0C00E0FE742D2F121A84E06E601A9060C4E01D
:100D1C002430121A75121AA9C083C082121A8CD0F0
:060D2C0007D0060204528C
:100D3200E49060C6F09060C5F0A3F0121A7DE01452
:100D4200FE9060C6E0FDC39E5022EF75F00FA42412
:100D520000F582E43460F583E5822D121AA1E0FFEA
:100D62009060C5E02FF0A3E004F080CF9060C5E072
:100D7200F0121A7DE0FEEF75F00FA424FFF582E475
:100D8200345FF583121A9EE0FF9060C5E06F600247
:020D9200D21D70
:100D9400301D1DC21D9060C4E0FF2430121A75126C
:100DA4001AA9C083C082121A8CD007D0061204522A
:100DB4009060C4E02434F582E43460F5837401F077
:090DC4009060C4E004F0020CE2AE
:010DCD002203
:0F1F55001201F99060C91203969060C902037ED1
:101DF90078C3E24403F218E2440CF2786AE24478C8
:101E0900F27591FF907123E05498F0E0441EF09030
:0C1E190071227407F0439E704399402230
:101CC7005399E0EF24FD60142402701E907123E005
:101CD70054D8F0E0445AF0439904800E907123E001
:101CE70054D8F0E0445BF04399017869E24448F244
:071CF7007F017E00021ECFF9
:100027007869E24401F2786BE230E1FA7402F2AFE8
:1000370093EF75F010A4FFAEF0E594C4540FFDEFF5
:030047004DFF2248
:10108900E49060C7F0A3F0A31203A200000000E4FB
:101099009060CDF0A3F074FFA3F0A3F0E4A3F0F007
:1010A9001200279060C7EEF0A3EFF09060D1E0C383
:1010B900940240549060CDE0FEA3E0FF9060C7E049
:1010C900FCA3E0FDD39FEC9E40089060CDECF0A31B
:1010D900EDF09060CFE0FEA3E0FFC3ED9FEC9E50E2
:1010E9000F9060C7E0FFA3E09060CFCFF0A3EFF0CF
:1010F9009060C912038A9060C7E0FEA3E0FFE4FC98
:10110900FD1201ECA31203969060D1E004F0E0C354
:101119009414408C121F5EC006C0079060CDE0FE9B
:10112900A3E0FBAA06E4F9F8D007D006121F55C0C0
:1011390006C0079060CFE0FEA3E0FBAA06E4F8D062
:1011490007D006121F5578041203589060C7EEF0B5
:03115900A3EFF011
:01115C002270
:101DCB00A3F078E3E254FCF2E24401F2907192E466
:101DDB00F0229060D1E004F0E0C3940822C2A4C2C8
:0E1DEB0096D2977F04FE22FFE0FEA807082292
:1019BE00E4FF78D3E2543FF2E24440F290718DE4BA
:1019CE00F0E254CFF2E24410F290718CE4F0121D6A
:1019DE00CDC297C29612195EEF702A7D0A7F8C12C5
:1019EE0012E27D017F881212E27D017F861212E2E1
:1019FE00E4FD7F821212E2E4FD7F841212E2E4FD26
:081A0E007F801212E2021B0CA2
:101EEA00E4FDEE25E0FEEF30E004EE4401FEEFC330
:091EFA0013FF0DEDB408EBAF0677
:011F030022BB
:02181C00AC0717
:10181E00E49060C5F0AF05121EEAEC64816019EC2D
:10182E0064836014EC6485600FEC6487600AEC647A
:08183E00896005EC648D704324
:10184600E49060C6F0A3F0EC64816004ECB4830617
:10185600EF547FFF8017EC64856004ECB48706EFD5
:10186600543FFF8008ECB48904EF541FFFEFC454C3
:101876000FFE9060C6F0EF540FFFA3F0EE75F00A6E
:03188600A42FFF8D
:01188900223C
:051609009060C5EFF048
:10160E00E4A3F0121DCB121DE8121F97E49060C7E1
:10161E00F012167D9060C7E09060C5121DF2800238
:10162E00C313D8FC30E004D2A48002C2A47F047E8F
:10163E0000121F9712168740D878E3E254FCF27816
:10164E00E0E24410F2E49060C7F09060C6E025E05E
:10165E00F012167D30A4079060C6E04401F0121619
:0E166E008740E7C296C297C2A49060C6E0FF14
:10167C0022C2967F047E00121F9722D2967F047E90
:0F168C0000121F979060C7E004F0E0C39408229B
:051F1D009060C4EFF02C
:101F2200E4FE121609AE079060C4E0FFAD06021887
:011F32001C92
:08169B009060CFEFF0A3EDF029
:1016A300E4121DCB121DE8121F97E49060D1F012D3
:1016B30017219060D1E09060CF121DF28002C31316
:1016C300D8FC30E004D2A48002C2A4121710121D69
:1016D300DD40DCE49060D1F01217219060D1E0FF8F
:1016E3009060D0E0FEA807088002C313D8FC30E066
:1016F30004D2A48002C2A4121710121DDD40D9C265
:0C170300967F047E00121F97C297C2A4BC
:10170F00227F047E00121F97D2967F047E00121F45
:0C171F009722C2967F047E00121F9722C2
:10195E00121B0CD3906076E09433906075E094087F
:10196E005048C3A3E094D0906075E09407403B903C
:10197E006077E0D3940C5032E0C39401402CA3E086
:10198E00D3941F5025E0C39401401FA3E0D39418B5
:10199E005018A3E0943C5012A3E0943C500C90607D
:1019AE0075E0B40708A3E0B4D0037F00227F0122C4
:0512E2009060CBEFF06D
:1012E700A3EDF0EF6480601D9060CBE0FF64826047
:1012F70014EF6484600FEF6486600AEF648860050A
:05130700EF648C706C26
:10130C00E49060CDF0A3F09060CCE0FFC3940A4071
:10131C0007EF75F00A84A3F09060CCE075F00A84B6
:10132C00AFF09060CEEFF09060CDE0FEC454F04F83
:10133C009060CCF09060CBE0FF64806004EFB482EE
:10134C00099060CCE0547FF080229060CBE0FF6489
:10135C00846004EFB486099060CCE0543FF0800CBC
:0C136C009060CBE0B48805A3E0541FF0B3
:10137800E4FD7F8E12169B9060CBE0FFA3E0FD1288
:09138800169B7D807F8E02169BEE
:101E78009060C8E0FD7F841212E29060C9E0FD7FA7
:0E1E8800821212E29060CAE0FD7F800212E238
:101B0C007F81121F1D90607BEFF07F83121F1D9051
:101B1C00607AEFF07F85121F1D906079EFF07F8760
:101B2C00121F1D906078EFF07F89121F1D90607757
:101B3C00EFF07F8D121F1DEF24D0FEE43407906070
:061B4C0075F0A3CEF022AB
:101F330075AF3F8FAF75AEB975A402E5A530E1FB70
:011F4300227B
:101CFE009060C51203F675AF3F8FAF9060C8E0C31A
:101D0E0094014022E5A530E0FB9060C5E475F0013A
:101D1E001203DF120144F5A675AEB975A4019060E9
:071D2E00C8E014F080D5228B
:101D35009060CE1203F69060D1E06027AE070FEEFB
:101D45002400FDE4343F8D82F583E493FE9060CE5C
:101D5500E475F0011203DFEE12015D9060D1E0142D
:041D6500F080D32215
:101D690078E2E2543FF2E24440F2907191E0F012DD
:101D79001E25121C53121B97121F71121F7E121D52
:101D8900F91219BE121B52121D9A7F017E00021E02
:011D9900CF7A
:101BD700120FAD75D95590715EE054FEF075D9BB03
:101BE700121D69D2A37FE87E03121ECFC2A375D947
:101BF700AA12139112122D12172B120EC41215705E
:0E1C070012143A120CBC120908120A7080E086
:101D9A007B017A6079C49060D17409F0E4FF121D66
:101DAA00359060CCE0B4C5189060C412037E906090
:101DBA006C1203969060C812037E906070120396AC
:011DCA0022F6
:101EB300E4FF121F3390607474C5F07B017A60797C
:0C1EC3006C9060C87409F0E4FF021CFE83
:1018F600906093F09060C712037EE47B64FAF9F877
:101906001202929060C71203967B64E4FAF9F8908B
:1019160060C712037E02029274059060C4F0E090E4
:101926006090F022AC00AD01AE02AF03E47B0AFA90
:10193600F9F8020292AC00AD01AE02AF03780402E0
:10194600036B9060C6E0248FF582E43460F5832251
:08195600EFF09060C702037E70
:02047E00AB07CA
:10048000E49060C4F0A3F0A3F0A31203A200000064
:100490000090608F74A5F0906091EBF01203FF0460
:1004A000DC0104E50204EE0304F704050005050978
:1004B00006051207053508055509055E0B05730E7F
:1004C00005B80F05DB1005F811060614064C1506D5
:1004D000CD1806DC1906FF1A0000074512191E90F8
:1004E00060840205FE12191E9060850205FE121935
:1004F0001E9060860205FE12191E9060890205FE9C
:1005000012191E90608A0205FE12191E90608B025D
:1005100005FE740612192090607C12037E78081282
:100520000358906092EFF090607C12037E9060938D
:10053000EFF0020745D3906081E094FF906080E087
:1005400094004006E4F0A374FFF012191E9060803E
:10055000E0A30205FE12191E9060870205FE90605E
:10056000C47408121923E47BE87A03F9F890606CEC
:100570000206179060C4740B121923906075E09006
:100580006092F0906075E0A3E0906093F0906077E7
:10059000E0906094F0906078E0906095F0906079E1
:1005A000E0906096F090607AE0906097F090607BC9
:1005B000E0906098F00207459060C4740712192318
:1005C000906079E0906092F090607AE0906093F0B3
:1005D00090607BE0906094F00207459060C47406E0
:1005E000121923906082E0906092F0906082E0A304
:1005F000E0906093F002074512191E90608CE09025
:100600006092F00207459060C47408121923E47BDD
:1006100064FAF9F89060701219189060C712039686
:1006200012195878181203589060921219567810BF
:10063000120358906093121956780812035890606C
:1006400094121956906095EFF00207459060C474BB
:1006500007121923E47BA1FAF9F890607012037E67
:1006600012190612192AC004C005C006C0077B0A69
:1006700012191112193BD003D002D001D00012037D
:1006800024906094EF1218F912192AC004C005C012
:1006900006C007E47B0A12191212193BD003D002DC
:1006A000D001D000120324EF1218F612192AC00448
:1006B000C005C006C007E47B0A12191212193BD00C
:1006C00003D002D001D0001203240207409060C47E
:1006D0007406121923E47BE87A03800D9060C474D9
:1006E00006121923E47B4A7A06F9F8906070120327
:1006F0007E121906EB1218F6906092EBF08046908D
:100700006080E0FEA3E0FF7C027D6D120425E47BA7
:10071000E87A03F9F81202929060C7120396E47F18
:10072000FFFEFDFC9060C712038AD3120347400A04
:100730009060C71203A2000000FF12191E12195880
:10074000906092EFF0E49060C6F09060C4E0FF909B
:1007500060C6E0C39F50319060C4E014FF9060C653
:10076000E0B5070B9060C5E0FFA312194BEFF01244
:100770001948E0FF121F64121948E0FF9060C5E0BD
:0F0780002FF0A3E004F080C27F017E00021ECFA5
:101C530078E2E254F3F208E254F3F218E254CFF2DA
:101C630008E2543FF278F2E254FCF278D3E254FCF7
:101C7300F218E2543FF2E254FCF278C3E2543FF22A
:0B1C8300E254CFF278E2E254FCF222BF
:10139100C39060F7E094C89060F6E094004036E4B2
:1013A100F0A3F090608930A503F080037401F0D2BE
:1013B1000330A207E490608AF0800690608A74018D
:1013C100F0D20430A107E490608BF0800690608B2E
:1013D1007401F0D205208607E4906084F0804520F6
:1013E10087089060847401F0803A209008906084AE
:1013F1007402F0802F2093089060847403F080249D
:101401002094089060847404F0801920B0089060E2
:10141100847405F0800E90608420A7057406F08026
:101421000374FFF0D20120A00890608C7401F08059
:0914310005E490608CF0D20F225A
:1017B800C11A4460B4000000004460B80000000092
:0E17C8004460BC000000004460C0000000004F
:0C1F8B0012038A0201ECE4FDFC02038A50
:0D1F710078D3E254F3F278D0E24420F2225B
:101C8E009060BC12037E9060B8121F8B9060BC12E5
:101C9E0003969060B81203A2000000009060C0127C
:101CAE00037E9060B4121F8B9060C01203969060FA
:091CBE00B41203A2000000002290
:10122D009060C41203A2000000009060C81203A2D7
:10123D00000000007FF47E019060BC121F91C3126C
:10124D0003475006201A030212E17F2E7E049060A0
:10125D00C0121F91120207E47B03FAF9F8120292F1
:10126D009060C8120396301A0C9060C41203A2004D
:10127D000000008027E47F24FEFDFC9060C812036F
:10128D008A120207E47B0AFAF9F81202929060BC06
:10129D0012038A1202929060C41203969060AC12EF
:1012AD00037E9060C8121F8B9060AC120396906005
:1012BD00C01203A2000000009060BC1203A2000047
:1012CD000000C21A9060C412037E906080EEF0A3FD
:0412DD00EFF0D20755
:0112E10022EA
:061FC7009060DD02038AB8
:0D1F7E0078C2E254CFF278C0E24404F222AF
:101C15009060D912037E9060D312038A1201EC9072
:101C250060D91203969060D31203A200000000123F
:101C35001FC79060D7E0FEA3E0FFE4FCFD1201ECB6
:0E1C45009060DD120396E49060D7F0A3F022C9
:10172B00E47FF47E01FDFC121FC7C3120347500375
:10173B00301B6C301B0C9060C41203A20000000025
:10174B00801CE47F607EEAFDFC9060D912038A1254
:10175B000207121FC71202929060C4120396906088
:10176B00D91203A2000000009060DD1203A200005A
:10177B000000C21BE47FFF7EFFFDFC9060C41203E0
:10178B008AC3120347400A9060C41203A20000FFF1
:0F179B00FF9060C412037E90607C120396D2060A
:0117AA00221C
:0617D600C1194160A300EF
:101E500012037EEF2401FFE43EFEE43DFDE43CFC82
:101E60002212037E1201F9E47B64FAF9F8C302033B
:081E70004712038AC302034775
:100EC400C39060B1E094E89060B0E09403400F30C8
:100ED400180C121EB3C218E49060B0F0A3F0E47FC3
:100EE400E87E03FDFC9060AC121E7140657F187EA5
:100EF400C67D9A7C3B90606C121E71500C90606CA5
:100F0400121E5090606C1203967F7F7E967D987CB3
:100F140000906070121E71500C906070121E509000
:100F240060701203969060AC12037EC3EF94E8FFE6
:100F3400EE9403FEED9400FDEC9400FC9060AC1282
:020F4400039612
:100F46009060A3E004F0E0C3940A4004E4F0D218F1
:100F56009060A412038A90606C121E61500E90601D
:100F66006C12037E9060A4120396D20A9060A812B7
:100F7600038A906070121E61500E90607012037E9C
:100F86009060A8120396D20BC39060B3E094889049
:100F960060B2E09413400FE4F0A3F0201904D20BE2
:060FA6008002D20AB2191C
:010FAC002222
:0217DC00C10F3B
:0A1FB6009060C4E0FF75F00FA42254
:10090800E49060C4F0F09060C4E0FFC39403400337
:10091800020A6F74342FF582E43460F583E07003C3
:10092800020A669060C4E0FB75F00FA42402F58209
:10093800E43460F583E01203FF095D8009628B09E6
:10094800678C096C8E0A0F8F0A03980A07990A0B9D
:100958009A00000A11D200020A11D20A020A11D220
:100968000B020A11D20CEB75F00FA42403F582E4F4
:100978003460F583E0FFE4FCFDFE780812036BEBBE
:1009880075F00FA42404F582E43460F583E07C005C
:100998002FFFEC3E906075F0A3EFF0121FB6240510
:1009A800F582E43460F583E0906077F0EF75F00F3E
:1009B800A42406F582E43460F583E0906078F012B0
:1009C8001FB62407F582E43460F583E0906079F07F
:1009D800EF75F00FA42408F582E43460F583E09005
:1009E800607AF09060C4E075F00FA42409F582E401
:1009F8003460F583E090607BF0800ED210800AD2DC
:100A0800118006D2128002D20D906033E0D3940098
:100A18004003E014F09060C4E0FF2434F582E4342D
:100A280060F583E4F0742D2FF582E43460F583E4F7
:100A3800F074302FF582E43460F583E4F0FE7F0F24
:100A4800C006C007FD9060C4E075F00FA42400F94B
:100A5800746035F0FA7B01D007D00612045290601A
:070A6800C4E004F002090ED6
:010A6F002264
:100A700030003CC2009060EBE0703404F0FF1204E0
:100A80007E7F0212047E7F0712047E120B917F0983
:100A900012047E7F0B12047E7F1412047E121B0C44
:100AA0007F0E12047E7F1012047E7F1112047E30AE
:100AB0000307C2037F0412047E300407C2047F05CB
:100AC00012047E300107C2017F0112047E3002074A
:100AD000C2027F0212047E300607C2067F0712049C
:100AE0007E300705C207120B91300807C2087F0944
:100AF00012047E300A07C20A7F0B12047E300B07F5
:100B0000C20B7F1412047E300F07C20F7F11120434
:100B10007E300C23C20C9060EEE0701B78C47C60C9
:100B20007D017B017A607975FE7F0712011E121E1E
:100B3000789060EE7401F0300E07C20E7F10120440
:100B40007E301019C21090606C1203A200000000E9
:100B50009060AC1203A200000000121EB330111905
:100B6000C2119060701203A2000000009060AC12ED
:100B700003A200000000121EB3300507C2057F0665
:100B800012047E300D0AC20D121B0C7F0F12047E60
:0C0B9000227F0812047E7F1A12047E22CD
:1017DE0044603F00000000602860430000000000ED
:1017EE0000000000000000000000000000000000EB
:1017FE0000000000000000000000000000000000DB
:0B180E0000000041606B0041603E00E4
:101ABF00FFEE34F9FEE434FFFDE434FFFCE4FAF901
:101ACF00F8120207E4229060C7E0FEA3E0FF22FABB
:101ADF00F9F8120292AD07C322FFEE34FAFEE43496
:101AEF00FFFDE434FFFCE42225E02443F582E434D7
:0D1AFF0060F58322FDFC12038AC302034739
:04188A00AB07AA06F8
:10188E00E49060C7F0A31203A200000000AE02AF06
:10189E000390606BE0FD04F0ED121AF7EEF0A3EF8B
:1018AE00F090606BE0C394144002E4F0E49060C7E3
:1018BE00F09060C812038A9060C7E0121AF7E0FE3B
:1018CE00A3E0FFE4FCFD1201EC9060C812039690B9
:1018DE0060C7E004F0E0B414D8E47B14FAF9F89091
:0818EE0060C812037E020292A1
:101F4400E4FDED121AF7EEF0A3EFF00DEDB414F288
:011F5400226A
:08078F009060C7EEF0A3EFF04B
:10079700E4FDC3EF94C5EE940B500A121AD5945595
:1007A700EE940150057DFF020905D3EF94B9EE944D
:1007B700074005E4FD020905D3EF9433EE94045096
:1007C700057D64020905D3EF94B9EE9407501FEF36
:1007D70094D0EE94064017121AD5EF24307B1212EC
:1007E7001ABF7BE9121ADE74129DFD020905121A5F
:1007F700D5D394D0EE9406502AEF9427EE94064072
:10080700229060C7A3EF24D97B22121ABF7BA912BB
:100817001ADE74229DFDC3941240030209057D125E
:10082700020905121AD5D39427EE9406502DEF949A
:10083700A8EE940540259060C7A3EF2458121AE844
:100847007B33121ACD7B7F121ADE74339DFDC3945E
:100857002240030209057D22020905121AD5D39405
:10086700A8EE9405502AEF944AEE94054022906032
:10087700C7A3EF24B6121AE87B44121ACD7B5E1287
:100887001ADE74449DFDC3943350737D330209050A
:10089700121AD5D3944AEE9405502DEF94BCEE94DA
:1008A7000440259060C7A3EF2444FFEE34FB121ADF
:1008B700EC7B54121ACD7B8E121ADE74549DFDC345
:1008C7009444503A7D448036121AD5D394BCEE94A2
:1008D70004502BEF9433EE940440239060C7A3EFAA
:1008E70024CDFFEE34FB121AEC7B64121ACD7B8900
:1008F700121ADE74649DFDC3945450027D54AF05F3
:0109070022CD
:10157000E49060C4F0A3F0A3F07F03121CC712151F
:0C158000FD12188A9060C5EEF0A3EFF099
:10158C0090603EE070327FF47E01A3121B03402872
:10159C0090603F1203A2000000001215FD121F44C0
:1015AC009060F4E0FEA3E0FF9060C5EEF0A3EFF0D6
:0815BC001215E790603E04F0F7
:1015C400E47FE87E0390603F121B03401590603F68
:1015D4001203A2000000009060C5E0FEA3E0FF1229
:0215E40015E709
:1015E6002212078F9060C4EFF0906087F0E490605D
:1015F600C5F0A3F0D208221210899060F4EEF0A391
:03160600EFF022E0
:02181900C19C70
:101A1600E49060E9F0A3F09060C6E0906085F090F5
:101A260060C4E0FFA3E0906082CFF0A3EFF0D20E97
:101A3600D202229060E512037E9060E112038A12C0
:101A460002929060E51203969060E502037E906034
:101A5600C4EEF0A3EFF09060C4A3E0FF121E96A3BD
:061A6600EFF09060E522A4
:101F04007C0A7D50120425E47B0AFAF9F812029245
:091F1400E4FB7A10F9F8020292D4
:101E9600EFC3949640047E6480107E007C007D64CF
:0C1EA60012016F7D96120181AE07AF069D
:011EB200220D
:10143A00E49060C4F0A3F0A3F07F01121CC790608F
:10144A00E512038AC000C001C002C003121089E479
:10145A00FCFDD003D002D001D0001201EC9060E56F
:10146A001203969060E112037EEF2401FFE43EFE30
:10147A00E43DFDE43CFC9060E1120396301C20122E
:10148A001A39121F04121A541203A2000000009003
:10149A0060E11203A200000000121A16C21C22C345
:1014AA009060EAE094D09060E9E09407401D121A37
:1014BA0039121F04121A541203A20000000090608D
:0B14CA00E11203A200000000121A163D
:0114D50022F4
:1014F000021BD7E493A3F8E493A34003F68001F220
:1015000008DFF48029E493A3F85407240CC8C333FC
:10151000C4540F4420C8834004F456800146F6DFCB
:10152000E4800B01020408102040809017ABE47E99
:10153000019360BCA3FF543F30E509541FFEE493C0
:10154000A360010ECF54C025E060A840B8E493A387
:10155000FAE493A3F8E493A3C8C582C8CAC583CAB2
:10156000F0A3C8C582C8CAC583CADFE9DEE780BE6A
:01181B0000CC
:10004E00E709F608DFFA8046E709F208DFFA803E94
:10005E0088828C83E709F0A3DFFA8032E309F60881
:10006E00DFFA8078E309F208DFFA807088828C83E9
:10007E00E309F0A3DFFA806489828A83E0A3F6089D
:10008E00DFFA805889828A83E0A3F208DFFA804C77
:10009E0080D280FA80C680D4806980F2803380104E
:1000AE0080A680EA809A80A880DA80E280CA8033B7
:1000BE0089828A83ECFAE493A3C8C582C8CCC5832F
:1000CE00CCF0A3C8C582C8CCC583CCDFE9DEE780FF
:1000DE000D89828A83E493A3F608DFF9ECFAA9F07E
:1000EE00EDFB2289828A83ECFAE0A3C8C582C8CCD4
:1000FE00C583CCF0A3C8C582C8CCC583CCDFEADEED
:10010E00E880DB89828A83E493A3F208DFF980CC4E
:10011E0088F0EF60010E4E60C388F0ED2402B40447
:10012E000050B9F582EB2402B4040050AF232345EE
:06013E00822390009E7375
:10014400BB010689828A83E0225002E722BBFE02B9
:09015400E32289828A83E49322EC
:10015D00BB010689828A83F0225002F722BBFE0181
:02016D00F3227B
:10016F00EF8DF0A4A8F0CF8CF0A428CE8DF0A42EA4
:02017F00FE225E
:10018100BC000BBE0029EF8DF084FFADF022E4CC62
:10019100F875F008EF2FFFEE33FEEC33FCEE9DEC2B
:1001A100984005FCEE9DFE0FD5F0E9E4CEFD22ED71
:1001B100F8F5F0EE8420D21CFEADF075F008EF2FBB
:1001C100FFED33FD4007985006D5F0F222C398FDAC
:0501D1000FD5F0EA2249
:1001D600C5F0F8A3E028F0C5F0F8E58215827002B4
:0601E6001583E038F02251
:0D01EC00EF2BFFEE3AFEED39FDEC38FC2262
:0E01F900C3EF9BFFEE9AFEED99FDEC98FC2201
:10020700E88FF0A4CC8BF0A42CFCE98EF0A42CFC96
:100217008AF0EDA42CFCEA8EF0A4CDA8F08BF0A414
:100227002DCC3825F0FDE98FF0A42CCD35F0FCEB73
:100237008EF0A4FEA9F0EB8FF0A4CFC5F02ECD3938
:0F024700FEE43CFCEAA42DCE35F0FDE43CFC22A5
:1002560075F008758200EF2FFFEE33FECD33CDCC5F
:1002660033CCC58233C5829BED9AEC99E5829840E2
:100276000CF582EE9BFEED9AFDEC99FC0FD5F0D6BF
:10028600E4CEFBE4CDFAE4CCF9A88222B800C1B9E9
:100296000059BA002DEC8BF084CFCECDFCE5F0CB27
:1002A600F97818EF2FFFEE33FEED33FDEC33FCEB60
:1002B60033FB10D703994004EB99FB0FD8E5E4F91B
:1002C600FA227818EF2FFFEE33FEED33FDEC33FC08
:1002D600C933C910D7059BE99A4007EC9BFCE99AFC
:1002E600F90FD8E0E4C9FAE4CCFB2275F010EF2F41
:1002F600FFEE33FEED33FDCC33CCC833C810D70741
:100306009BEC9AE899400AED9BFDEC9AFCE899F87B
:0E0316000FD5F0DAE4CDFBE4CCFAE4C8F9220E
:0D032400EF4BFFEE4AFEED49FDEC48FC22D8
:10033100EB9FF5F0EA9E42F0E99D42F0EC6480C843
:0603410064809845F022E3
:10034700EB9FF5F0EA9E42F0E99D42F0E89C45F00C
:010357002283
:10035800E8600FECC313FCED13FDEE13FEEF13FF83
:03036800D8F122A7
:10036B00E8600FEFC333FFEE33FEED33FDEC33FCF0
:03037B00D8F12294
:0C037E00E0FCA3E0FDA3E0FEA3E0FF22F2
:0C038A00E0F8A3E0F9A3E0FAA3E0FB22F6
:0C039600ECF0A3EDF0A3EEF0A3EFF022DA
:1003A200A8828583F0D083D0821203B91203B912D6
:1003B20003B91203B9E473E493A3C583C5F0C583FB
:1003C200C8C582C8F0A3C583C5F0C583C8C582C8A5
:0103D2002208
:0C03D300A42582F582E5F03583F5832235
:1003DF00F8E0FBA3A3E0F925F0F0E58215827002A7
:0703EF001583E0FA38F0224B
:0903F600EBF0A3EAF0A3E9F02208
:1003FF00D083D082F8E4937012740193700DA3A38D
:10040F0093F8740193F5828883E4737402936860A0
:06041F00EFA3A3A380DFA0
:10042500EC8EF0A4CCC5F0CCCDF8EFA4CEC5F02D64
:10043500FDE43CFCE8A42EC8C5F03DFDE43CFCEF22
:0D044500A4FFE5F028FEE43DFDE43CFC22B0
:10045200EF4E6012EF60010EEDBB010B89828A83C1
:10046200F0A3DFFCDEFA2289F05007F709DFFCA9CE
:0C047200F022BBFEFCF309DFFCA9F02225
:00000001FF
