:030000000214D80F
:1014D800787FE4F6D8FD9060007F007E07E4F0A3F3
:0A14E800DFFCDEFA75812302152DEA
:0C000300000000000000000000000000F1
:0B1FA300EF1FAC0670011E4C70F62210
:101EDB00AB07AA06EB1BAE0270011A4E600C7FAA71
:0B1EEB007E05121FA375D9AA80EA2211
:100FAF00907120E04480F07F057E00121FA3E4FFC4
:100FBF00FE121EDB75A75575AC5C9071327450F044
:100FCF009071307403F0907136742FF090715C74DF
:100FDF0003F090715BE054FCF07F18EF2466FDE4A2
:100FEF0034718D82F583E4F00FEFB433EE9040113E
:100FFF00E4935407FF90711CE054F84FF0904017A2
:10100F00E493547FFF90711DE054804FF090401097
:10101F00E493FF5401C43333335480FE907123E0C3
:10102F00547F4EF0EFC313543F4440FFA3E054806E
:10103F004FF0904012E493FF540FFE907146E0542E
:10104F00F04EF0EFC4540FFF90714FE054F04FF09B
:10105F00904013E493543FFF907140E054C04FF021
:10106F00904014E493907126F0904015E4939071A2
:0B107F0028F0904016E49390712AF0D6
:01108A002243
:071FCC00E475F0010201D6EB
:101B8F00E5B154CF42B153A8BFD2AF75D102789C03
:101B9F00E254E3F2E2441CF2E254FCF2E24401F2BA
:101BAF0008E2547FF2E24420F278A17401F2187433
:101BBF0076F2789CE2541FF2E244C0F243A840222E
:0300210002115F6A
:10115F00C0E0C0F0C083C082C0D075D000C000C056
:10116F0001C002C003C004C005C006C007789DE2DD
:10117F0020E703021214E24480F230140690603725
:10118F00E004F0906102121FCC9060A4E0FEA3E097
:10119F00FFE4FCFD7BFF7AFFF9F8D3120331400621
:1011AF009060A4121FCC90603F12037EEF2401FFCA
:1011BF00E43EFEE43DFDE43CFC90603F120396905C
:1011CF0060F8121FCCC39060F9E094D09060F8E003
:1011DF0094074008E4F0A3F09060F7F09060FB12E2
:1011EF001FCCC39060FCE094649060FBE0940040DF
:1011FF0008E4F0A3F09060FAF09060A6121FCC9074
:10120F0060F5121FCCD007D006D005D004D003D084
:10121F0002D001D000D0D0D082D083D0F0D0E03235
:0D17AD00C116C1174160FD004260FE000042
:10000F0012037EEF2401FFE43EFEE43DFDE43CFCE1
:01001F0022BE
:101B4A00E5B254FC42B253A9FED2AF75D1049071EA
:101B5A0000E054E3F0E0F0E054FCF0E04401F090DF
:101B6A0071057409F0907104745FF0907101E0548A
:101B7A007FF0E04420F0907100E0541FF0E044C090
:051B8A00F043A9012257
:03002400020EB910
:100EB900C0E0C0F0C083C082C0D075D000C000C0FF
:0D0EC90001C002C003C004C005C006C00780
:0E0ED600907101E020E703020F94E04480F0E9
:100EE4009060FDE004F0E0C394144023E4F09060CB
:100EF400E375F0011201D6C39060E4E09458906069
:0F0F0400E3E094024009201906E4F0A3F0D219AB
:100F130030821620160F9060DF12000F9060DF12F0
:0B0F23000396121C0DD2168002C216AD
:100F2E009060FEE475F0011201D6C39060FFE0946C
:100F3E00149060FEE094004032E4F0A3F09060D391
:100F4E0012000F9060D3120396E47F587E02FDFCD0
:100F5E009060D312038AC3120347400F20180C90DF
:0B0F6E0060D31203A200000000D218A4
:100F790030951620170F9060CF12000F9060CF1296
:0B0F89000396121CC3D2178002C2178F
:100F9400D007D006D005D004D003D002D001D000B1
:0B0FA400D0D0D082D083D0F0D0E0325B
:101A640090603A12037E74302FF582E43460F5837B
:101A7400229060BCE0FF242DF582E43460F58322DB
:101A84007D00EF75F00FA42400F9746035F0FA7B43
:101A94000122E5822EF582E43583F58322E4F09079
:101AA4006033E014F090000F22906039E4F090600D
:031AB40038F022E5
:0A1FAE00E4906037F0C213D2142251
:0A1FB800C214E4906037F0C2132257
:101E590078C2E2543FF2E254FCF2E24440F290715B
:101E690081E04404F0907175E04401F043AA20D266
:0B1E7900AF75D60175D59F75D2112200
:03004B00020B7B2A
:100B7B00C0E0C0F0C083C082C0D075D000C000C040
:0D0B8B0001C002C003C004C005C006C007C1
:100B98009060CEE4F0E5D420E503020C80E5D7F0C0
:100BA800201504E0B4A509906033E0C39403400322
:100BB800020C7D9060CEE0B4A508D215121AAD12D1
:100BC8001FAE906039E0B401089060CEE0906038C4
:100BD800F0121A64E06003020C809060CEE0FF908F
:100BE800603A12038A90600075F00FEB1203D3EAA3
:100BF80075F00FA42583F583C083C082906039E027
:100C0800FE04F0D082D083121A96EFF0906037E499
:100C1800F0A3E06063E0FFA3E06F705C906038E0F1
:100C2800FB90603A12037E742D2F121A7CEBF0C2EF
:100C380015121AAD121A647401F0906033E004F0D2
:100C480090603A12037EEF2401FFE43EFEE43DFD8E
:100C5800E43CFC90603A120396E47F03FEFDFC90AE
:100C6800603A12038AC3120347400A90603A12039B
:080C7800A200000000121FB8E9
:100C8000D007D006D005D004D003D002D001D000C8
:0B0C9000D0D0D082D083D0F0D0E03272
:0D1F7000E5D430E4FB8FD7E5D430E4FB224C
:100C9B00E49060BCF0A3F0C21C906037E0D3940AE0
:100CAB00400F121FB8E4906039F0906038F0C21515
:100CBB0022E49060BCF09060BCE0FFC3940340035F
:100CCB00020DAC74302F121A6DE07003020DA3905D
:100CDB0060BCE075F00FA42401F582E43460F58369
:100CEB00E0FE742D2F121A7CE06E601A9060BCE04F
:100CFB002430121A6D121AA1C083C082121A84D02A
:060D0B0007D006020452AD
:100D1100E49060BEF09060BDF0A3F0121A75E0148B
:100D2100FE9060BEE0FDC39E5022EF75F00FA4243B
:100D310000F582E43460F583E5822D121A99E0FF13
:100D41009060BDE02FF0A3E004F080CF9060BDE0A3
:100D5100F0121A75E0FEEF75F00FA424FFF582E49E
:100D6100345FF583121A96E0FF9060BDE06F600278
:020D7100D21C92
:100D7300301C1DC21C9060BCE0FF2430121A6D129F
:100D83001AA1C083C082121A84D007D0061204525B
:100D93009060BCE02434F582E43460F5837401F0A0
:090DA3009060BCE004F0020CC1F8
:010DAC002224
:0F1F61001201F99060C11203969060C102037ED5
:101E2D0078C3E24403F218E2440CF2786AE2447893
:101E3D00F27591FF907123E05498F0E0441EF090FC
:0C1E4D0071227407F0439E7043994022FC
:101CFC005399E0EF24FD60142402701E907123E0D0
:101D0C0054D8F0E0445AF0439904800E907123E0CB
:101D1C0054D8F0E0445BF04399017869E24448F20E
:071D2C007F017E00021EDBB7
:100027007869E24401F2786BE230E1FA7402F2AFE8
:1000370093EF75F010A4FFAEF0E594C4540FFDEFF5
:030047004DFF2248
:10108B00E49060BFF0A3F0A31203A200000000E401
:10109B009060C5F0A3F074FFA3F0A3F0E4A3F0F00D
:1010AB001200279060BFEEF0A3EFF09060C9E0C391
:1010BB00940240549060C5E0FEA3E0FF9060BFE057
:1010CB00FCA3E0FDD39FEC9E40089060C5ECF0A321
:1010DB00EDF09060C7E0FEA3E0FFC3ED9FEC9E50E8
:1010EB000F9060BFE0FFA3E09060C7CFF0A3EFF0DD
:1010FB009060C112038A9060BFE0FEA3E0FFE4FCA6
:10110B00FD1201ECA31203969060C9E004F0E0C35A
:10111B009414408C121F6AC006C0079060C5E0FE95
:10112B00A3E0FBAA06E4F9F8D007D006121F61C0B2
:10113B0006C0079060C7E0FEA3E0FBAA06E4F8D068
:10114B0007D006121F6178041203589060BFEEF0AF
:03115B00A3EFF00F
:01115E00226E
:101DFF00A3F078E3E254FCF2E24401F2907192E432
:101E0F00F0229060C9E004F0E0C3940822C2A4C29B
:0E1E1F0096D2977F04FE22FFE0FEA80708225D
:1019B600E4FF78D3E2543FF2E24440F290718DE4C2
:1019C600F0E254CFF2E24410F290718CE4F0121E71
:1019D60001C297C2961218F6EF702A7D0A7F8C1202
:1019E60012E47D017F881212E47D017F861212E4E3
:1019F600E4FD7F821212E4E4FD7F841212E4E4FD2A
:081A06007F801212E4021B04B0
:101EF600E4FDEE25E0FEEF30E004EE4401FEEFC324
:091F060013FF0DEDB408EBAF066A
:011F0F0022AF
:02181C00AC0717
:10181E00E49060BDF0AF05121EF6EC64816019EC29
:10182E0064836014EC6485600FEC6487600AEC647A
:08183E00896005EC648D704324
:10184600E49060BEF0A3F0EC64816004ECB483061F
:10185600EF547FFF8017EC64856004ECB48706EFD5
:10186600543FFF8008ECB48904EF541FFFEFC454C3
:101876000FFE9060BEF0EF540FFFA3F0EE75F00A76
:03188600A42FFF8D
:01188900223C
:05160B009060BDEFF04E
:10161000E4A3F0121DFF121E1C121FA3E49060BF72
:10162000F012167F9060BFE09060BD121E2680020F
:10163000C313D8FC30E004D2A48002C2A47F047E8D
:1016400000121FA312168940D878E3E254FCF27806
:10165000E0E24410F2E49060BFF09060BEE025E06C
:10166000F012167F30A4079060BEE04401F012161D
:0E1670008940E7C296C297C2A49060BEE0FF18
:10167E0022C2967F047E00121FA322D2967F047E82
:0F168E0000121FA39060BFE004F0E0C394082295
:051F29009060BCEFF028
:101F2E00E4FE12160BAE079060BCE0FFAD06021881
:011F3E001C86
:08169D009060C7EFF0A3EDF02F
:1016A500E4121DFF121E1C121FA3E49060C9F01264
:1016B50017239060C9E09060C7121E268002C313ED
:1016C500D8FC30E004D2A48002C2A4121712121E64
:1016D5001140DCE49060C9F01217239060C9E0FF67
:1016E5009060C8E0FEA807088002C313D8FC30E06C
:1016F50004D2A48002C2A4121712121E1140D9C22C
:0C170500967F047E00121FA3C297C2A4AE
:10171100227F047E00121FA3D2967F047E00121F37
:0C172100A322C2967F047E00121FA322A8
:1018F600121B04D390607AE09433906079E09408E8
:101906005048C3A3E094D0906079E09407403B90A0
:10191600607BE0D3940C5032E0C39401402CA3E0EA
:10192600D3941F5025E0C39401401FA3E0D394181D
:101936005018A3E0943C5012A3E0943C500C9060E5
:1019460079E0B40708A3E0B4D0037F00227F012228
:0512E4009060C3EFF073
:1012E900A3EDF0EF6480601D9060C3E0FF6482604D
:1012F90014EF6484600FEF6486600AEF6488600508
:05130900EF648C706C24
:10130E00E49060C5F0A3F09060C4E0FFC3940A407F
:10131E0007EF75F00A84A3F09060C4E075F00A84BC
:10132E00AFF09060C6EFF09060C5E0FEC454F04F91
:10133E009060C4F09060C3E0FF64806004EFB482FC
:10134E00099060C4E0547FF080229060C3E0FF6497
:10135E00846004EFB486099060C4E0543FF0800CC2
:0C136E009060C3E0B48805A3E0541FF0B9
:10137A00E4FD7F8E12169D9060C3E0FFA3E0FD128C
:09138A00169D7D807F8E02169DE8
:101E84009060C0E0FD7F841212E49060C1E0FD7FA9
:0E1E9400821212E49060C2E0FD7F800212E430
:101B04007F81121F2990607FEFF07F83121F29903D
:101B1400607EEFF07F85121F2990607DEFF07F8754
:101B2400121F2990607CEFF07F89121F2990607B3F
:101B3400EFF07F8D121F29EF24D0FEE4340790606C
:061B440079F0A3CEF022AF
:101F3F0075AF3F8FAF75AEB975A402E5A530E1FB64
:011F4F00226F
:101D33009060BD1203F675AF3F8FAF9060C0E0C3F4
:101D430094014022E5A530E0FB9060BDE475F0010D
:101D53001203DF120144F5A675AEB975A4019060B4
:071D6300C0E014F080D5225E
:101D6A009060CA1203F69060CDE06027AE070FEECE
:101D7A002400FDE4343F8D82F583E493FE9060CA2B
:101D8A00E475F0011203DFEE12015D9060CDE014FC
:041D9A00F080D322E0
:101D9E0078E2E2543FF2E24440F2907191E0F012A8
:101DAE001E59121C88121B8F121F7D121F8A121EA3
:101DBE002D1219B6121B4A121C4B7F017E00021EF9
:011DCE00DB39
:101BCF00120FAF75D95590715EE054FEF075D9BB09
:101BDF00121D9ED2A37FE87E03121EDBC2A375D90E
:101BEF00AA12139312122F12172D120DAD12157276
:0E1BFF0012143C120C9B1208C3120A2C80E038
:101C4B007B017A6079BC9060CD740DF0E4FF121DBE
:101C5B006A9060C8E0B4C5249060BC12037E9060AB
:101C6B006C1203969060C012037E90607012039604
:0C1C7B009060C412037E90607412039607
:011C8700223A
:101EBF00E4FF121F3F90607874C5F07B017A607960
:0C1ECF006C9060C0740DF0E4FF021D3345
:101956009060ACF09060BF12037EE47B64FAF9F805
:101966001202929060BF1203967B64E4FAF9F89033
:1019760060BF12037E02029274059060BCF0E09094
:1019860060A9F022AC00AD01AE02AF03E47B0AFA17
:10199600F9F8020292AC00AD01AE02AF0378040280
:1019A600036B9060BEE024A8F582E43460F58322E0
:02047E00AB07CA
:10048000E49060BCF0A3F0A3F0A31203A20000006C
:10049000009060A874A5F09060AAEBF01203FF042E
:1004A000DC0104E50204EE0304F704050005050978
:1004B00006051207053508055509055E0B056D0C87
:1004C00005820E05C71005E41105F2140605150690
:1004D000861806951906B81A0000070012197E90B2
:1004E00060880205EA12197E9060890205EA1219F5
:1004F0007E90608A0205EA12197E90608D0205EAFC
:1005000012197E90608E0205EA12197E90608F02A9
:1005100005EA740612198090608012037E78081232
:1005200003589060ABEFF090608012037E9060AC57
:10053000EFF0020700D3906085E094FF906084E0C4
:1005400094004006E4F0A374FFF012197E906084DA
:10055000E0A30205EA12197E90608B0205EA906022
:10056000BC7407121983E47BE87A03800D9060BCA9
:100570007407121983E47B4A7A06F9F890606C02DA
:1005800006169060BC740B121983906079E090603D
:10059000ABF0906079E0A3E09060ACF090607BE01D
:1005A0009060ADF090607CE09060AEF090607DE097
:1005B0009060AFF090607EE09060B0F090607FE07F
:1005C0009060B1F00207009060BC7406121983902D
:1005D0006086E09060ABF0906086E0A3E09060AC55
:1005E000F002070012197E906090E09060ABF0027C
:1005F00007009060BC7407121983E47B64FAF9F871
:1006000090607080119060BC7407121983E47BA124
:10061000FAF9F890607012037E12196612198AC0F6
:1006200004C005C006C0077B0A12197112199BD0BD
:1006300003D002D001D0001203249060ADEF121954
:100640005912198AC004C005C006C007E47B0A120B
:10065000197212199BD003D002D001D000120324CA
:10066000EF12195612198AC004C005C006C007E46B
:100670007B0A12197212199BD003D002D001D0004C
:100680001203240206FB9060BC7406121983E47BFB
:10069000E87A03800D9060BC7406121983E47B4AEB
:1006A0007A06F9F890607012037E121966EB12193F
:1006B000569060ABEBF08048906084E0FEA3E0FFD2
:1006C0007C027D6D12016F0C7DE8120181E4FCFD5E
:1006D0009060BF120396E47FFFFEFDFC9060BF12A6
:1006E000038AD3120347400A9060BF1203A200009E
:1006F00000FF12197E9060BF12037E9060ABEFF096
:10070000E49060BEF09060BCE0FF9060BEE0C39FEC
:1007100050319060BCE014FF9060BEE0B5070B90D4
:1007200060BDE0FFA31219ABEFF01219A8E0FF12B1
:100730001F701219A8E0FF9060BDE02FF0A3E00445
:0A074000F080C27F017E00021EDB84
:101C880078E2E254F3F208E254F3F218E254CFF2A5
:101C980008E2543FF278F2E254FCF278D3E254FCC2
:101CA800F218E2543FF2E254FCF278C3E2543FF2F5
:0B1CB800E254CFF278E2E254FCF2228A
:10139300C3906103E094C8906102E094004036E496
:1013A300F0A3F090608D30A503F080037401F0D2B8
:1013B3000330A207E490608EF0800690608E740183
:1013C300F0D20430A107E490608FF0800690608F24
:1013D3007401F0D205208607E4906088F0804520F0
:1013E30087089060887401F0803A209008906088A4
:1013F3007402F0802F2093089060887403F0802497
:101403002094089060887404F0801920B0089060DC
:10141300887405F0800E90608820A7057406F0801C
:101423000374FFF0D20120A0089060907401F08053
:0914330005E4906090F0D20F2254
:1017BA00C1184460CF000000004460D3000000005C
:0E17CA004460D7000000004460DB0000000017
:0C1F970012038A0201ECE4FDFC02038A44
:0D1F7D0078D3E254F3F278D0E24420F2224F
:101CC3009060D712037E9060D3121F979060D71253
:101CD30003969060D31203A2000000009060DB1211
:101CE300037E9060CF121F979060DB120396906083
:091CF300CF1203A2000000002240
:10122F009060BC1203A2000000009060C01203A2E5
:10123F00000000007FF47E019060D7121F9DC31243
:10124F00034750062018030212E37F2E7E0490609E
:10125F00DB121F9D120207E47B03FAF9F8120292C8
:10126F009060C012039630180C9060BC1203A2005D
:10127F000000008027E47F24FEFDFC9060C0120375
:10128F008A120207E47B0AFAF9F81202929060D7E9
:10129F0012038A1202929060BC1203969060A01201
:1012AF00037E9060C0121F979060A012039690600B
:1012BF00DB1203A2000000009060D71203A200000F
:1012CF000000C2189060BC12037E906084EEF0A301
:0412DF00EFF0D20753
:0112E30022E8
:061FD3009060E902038AA0
:0D1F8A0078C2E254CFF278C0E24404F222A3
:101C0D009060E512037E9060DF12038A1201EC9062
:101C1D0060E51203969060DF1203A200000000122F
:101C2D001FD39060E3E0FEA3E0FFE4FCFD1201ECA6
:0E1C3D009060E9120396E49060E3F0A3F022B9
:10172D00E47FF47E01FDFC121FD3C3120347500367
:10173D0030196C30190C9060BC1203A2000000002F
:10174D00801CE47F607EEAFDFC9060E512038A1246
:10175D000207121FD31202929060BC120396906082
:10176D00E51203A2000000009060E91203A2000040
:10177D000000C219E47FFF7EFFFDFC9060BC1203E8
:10178D008AC3120347400A9060BC1203A20000FFF7
:0F179D00FF9060BC12037E906080120396D2060C
:0117AC00221A
:0417D80041609300D9
:101DCF0012037EEF2401FFE43EFEE43DFDE43CFC04
:101DDF002212037E1201F9E47B64FAF9F8C30203BD
:101DEF00477F7F7E967D987C0012038AC30203474C
:100DAD00C39060A5E094E89060A4E09403400F30F8
:100DBD001A0C121EBFC21AE49060A4F0A3F0E47FD7
:100DCD00E87E03FDFC9060A0121DF840717F187E37
:100DDD00C67D9A7C3B90606C121DF8500C90606C37
:100DED00121DCF90606C120396906070121DF05022
:100DFD000C906070121DCF9060701203969060740D
:100E0D00121DF0500C906074121DCF90607412037F
:100E1D00969060A012037EC3EF94E8FFEE9403FE5C
:0E0E2D00ED9400FDEC9400FC9060A012039682
:100E3B00906093E004F0E0C3940A4004E4F0D21A0B
:100E4B0090609412038A90606C121DE0500E9060BB
:100E5B006C12037E906094120396D20A90609812E3
:100E6B00038A906070121DE0500E90607012037E2A
:100E7B00906098120396D20B90609C12038A90603C
:100E8B0074121DE0500E90607412037E90609C12E1
:100E9B000396D20CC39060A7E094889060A6E09470
:0D0EAB0013400AE4F0A3F0D20AD20BD20CDF
:010EB8002217
:0217DC00C10F3B
:0A1FC2009060BCE0FF75F00FA42250
:1008C300E49060BCF0F09060BCE0FFC3940340038D
:1008D300020A2B74342FF582E43460F583E070034D
:1008E300020A229060BCE0FB75F00FA42402F5829B
:1008F300E43460F583E01203FF091880091D8B09B6
:10090300228C092C8E09279409C39809C79909CB0E
:100913009A000009CDD2000209CDD20A0209CDD234
:100923000B0209CDD20C0209CDD20DEB75F00FA449
:100933002403F582E43460F583E0FFE4FCFDFE78F4
:100943000812036BEB75F00FA42404F582E4346002
:10095300F583E07C002FFFEC3E906079F0A3EFF08D
:10096300121FC22405F582E43460F583E090607BB6
:10097300F0EF75F00FA42406F582E43460F583E00C
:1009830090607CF0121FC22407F582E43460F58383
:10099300E090607DF0EF75F00FA42408F582E43455
:1009A30060F583E090607EF09060BCE075F00FA48A
:1009B3002409F582E43460F583E090607FF0800AD7
:1009C300D2108006D2118002D212906033E0D39409
:1009D300004003E014F09060BCE0FF2434F582E4AF
:1009E3003460F583E4F0742D2FF582E43460F583ED
:1009F300E4F074302FF582E43460F583E4F0FE7F95
:100A03000FC006C007FD9060BCE075F00FA4240082
:100A1300F9746035F0FA7B01D007D00612045290C6
:080A230060BCE004F00208C908
:010A2B0022A8
:100A2C00300046C2009060F7E0703E04F0FF120404
:100A3C007E7F0212047E7F0712047E120B707F09E8
:100A4C0012047E7F0B12047E7F0C12047E7F141224
:100A5C00047E7F1512047E121B047F0E12047E7F0F
:100A6C001012047E7F1112047E300307C2037F0430
:100A7C0012047E300407C2047F0512047E30010785
:100A8C00C2017F0112047E300207C2027F021204EF
:100A9C007E300607C2067F0712047E300705C207A8
:100AAC00120B70300807C2087F0912047E300A024C
:100ABC00C20A300B07C20B7F0B12047E300C02C231
:100ACC000C300F07C20F7F1112047E300F07C20FBC
:100ADC007F1112047E300D23C20D9060FAE0701B62
:100AEC0078BC7C607D017B017A607979FE7F07128E
:100AFC00011E121E849060FA7401F0300E07C20EB3
:100B0C007F1012047E301019C21090606C1203A278
:100B1C00000000009060A01203A200000000121E52
:100B2C00BF301119C2119060701203A200000000B6
:100B3C009060A01203A200000000121EBF30121918
:100B4C00C2129060741203A2000000009060A01208
:100B5C0003A200000000121EBF300507C2057F066D
:0F0B6C0012047E227F0812047E7F1A12047E225A
:1017DE0044603F00000000602860430000000000ED
:1017EE0000000000000000000000000000000000EB
:1017FE0000000000000000000000000000000000DB
:0B180E0000000041606B0041603E00E4
:101AB700FFEE34F9FEE434FFFDE434FFFCE4FAF909
:101AC700F8120207E4229060BFE0FEA3E0FF22FACB
:101AD700F9F8120292AD07C322FFEE34FAFEE4349E
:101AE700FFFDE434FFFCE42225E02443F582E434DF
:0D1AF70060F58322FDFC12038AC302034741
:04188A00AB07AA06F8
:10188E00E49060BFF0A31203A200000000AE02AF0E
:10189E000390606BE0FD04F0ED121AEFEEF0A3EF93
:1018AE00F090606BE0C394144002E4F0E49060BFEB
:1018BE00F09060C012038A9060BFE0121AEFE0FE53
:1018CE00A3E0FFE4FCFD1201EC9060C012039690C1
:1018DE0060BFE004F0E0B414D8E47B14FAF9F89099
:0818EE0060C012037E020292A9
:101F5000E4FDED121AEFEEF0A3EFF00DEDB414F284
:011F6000225E
:08074A009060BFEEF0A3EFF098
:10075200E4FDC3EF94C5EE940B500A121ACD9455E2
:10076200EE940150057DFF0208C0D3EF94B9EE94D8
:10077200074005E4FD0208C0D3EF9433EE94045021
:10078200057D640208C0D3EF94B9EE9407501FEFC1
:1007920094D0EE94064017121ACDEF24307B121239
:1007A2001AB77BE9121AD674129DFD0208C0121AFA
:1007B200CDD394D0EE9406502AEF9427EE940640BF
:1007C200229060BFA3EF24D97B22121AB77BA91211
:1007D2001AD674229DFDC3941240030208C07D12F2
:1007E2000208C0121ACDD39427EE9406502DEF942E
:1007F200A8EE940540259060BFA3EF2458121AE09A
:100802007B33121AC57B7F121AD674339DFDC394B3
:100812002240030208C07D220208C0121ACDD394DE
:10082200A8EE9405502AEF944AEE94054022906077
:10083200BFA3EF24B6121AE07B44121AC57B5E12E4
:100842001AD674449DFDC3943350737D330208C09D
:10085200121ACDD3944AEE9405502DEF94BCEE9427
:100862000440259060BFA3EF2444FFEE34FB121A2C
:10087200E47B54121AC57B8E121AD674549DFDC3A2
:100882009444503A7D448036121ACDD394BCEE94EF
:1008920004502BEF9433EE940440239060BFA3EFF7
:1008A20024CDFFEE34FB121AE47B64121AC57B8955
:1008B200121AD674649DFDC3945450027D54AF0540
:0108C2002213
:10157200E49060BCF0A3F0A3F07F03121CFC1215F0
:0C158200FF12188A9060BDEEF0A3EFF09D
:10158E0090603EE070327FF47E01A3121AFB402879
:10159E0090603F1203A2000000001215FF121F50B0
:1015AE00906100E0FEA3E0FF9060BDEEF0A3EFF0CF
:0815BE001215E990603E04F0F3
:1015C600E47FE87E0390603F121AFB401590603F6F
:1015D6001203A2000000009060BDE0FEA3E0FF122F
:0215E60015E905
:1015E8002212074A9060BCEFF090608BF0E49060A4
:1015F800BDF0A3F0D2082212108B906100EEF0A388
:03160800EFF022DE
:02181900C19B71
:101A0E00E49060F5F0A3F09060BEE0906089F090F5
:101A1E0060BCE0FFA3E0906086CFF0A3EFF0D20EA3
:101A2E00D202229060F112037E9060ED12038A12B0
:101A3E0002929060F11203969060F102037E906024
:101A4E00BCEEF0A3EFF09060BCA3E0FF121EA2A3C9
:061A5E00EFF09060F122A0
:101F10007C0A7D50120425E47B0AFAF9F812029239
:091F2000E4FB7A10F9F8020292C8
:101EA200EFC3949640047E6480107E007C007D64C3
:0C1EB20012016F7D96120181AE07AF0691
:011EBE002201
:10143C00E49060BCF0A3F0A3F07F01121CFC906060
:10144C00F112038AC000C001C002C00312108BE469
:10145C00FCFDD003D002D001D0001201EC9060F161
:10146C001203969060ED12037EEF2401FFE43EFE22
:10147C00E43DFDE43CFC9060ED120396301B201221
:10148C001A31121F10121A4C1203A2000000009005
:10149C0060ED1203A200000000121A0EC21B22C340
:1014AC009060F6E094D09060F5E09407401D121A1D
:1014BC0031121F10121A4C1203A20000000090608F
:0B14CC00ED1203A200000000121A0E37
:0114D70022F2
:1014F200021BCFE493A3F8E493A34003F68001F226
:1015020008DFF48029E493A3F85407240CC8C333FA
:10151200C4540F4420C8834004F456800146F6DFC9
:10152200E4800B01020408102040809017ADE47E95
:10153200019360BCA3FF543F30E509541FFEE493BE
:10154200A360010ECF54C025E060A840B8E493A385
:10155200FAE493A3F8E493A3C8C582C8CAC583CAB0
:10156200F0A3C8C582C8CAC583CADFE9DEE780BE68
:01181B0000CC
:10004E00E709F608DFFA8046E709F208DFFA803E94
:10005E0088828C83E709F0A3DFFA8032E309F60881
:10006E00DFFA8078E309F208DFFA807088828C83E9
:10007E00E309F0A3DFFA806489828A83E0A3F6089D
:10008E00DFFA805889828A83E0A3F208DFFA804C77
:10009E0080D280FA80C680D4806980F2803380104E
:1000AE0080A680EA809A80A880DA80E280CA8033B7
:1000BE0089828A83ECFAE493A3C8C582C8CCC5832F
:1000CE00CCF0A3C8C582C8CCC583CCDFE9DEE780FF
:1000DE000D89828A83E493A3F608DFF9ECFAA9F07E
:1000EE00EDFB2289828A83ECFAE0A3C8C582C8CCD4
:1000FE00C583CCF0A3C8C582C8CCC583CCDFEADEED
:10010E00E880DB89828A83E493A3F208DFF980CC4E
:10011E0088F0EF60010E4E60C388F0ED2402B40447
:10012E000050B9F582EB2402B4040050AF232345EE
:06013E00822390009E7375
:10014400BB010689828A83E0225002E722BBFE02B9
:09015400E32289828A83E49322EC
:10015D00BB010689828A83F0225002F722BBFE0181
:02016D00F3227B
:10016F00EF8DF0A4A8F0CF8CF0A428CE8DF0A42EA4
:02017F00FE225E
:10018100BC000BBE0029EF8DF084FFADF022E4CC62
:10019100F875F008EF2FFFEE33FEEC33FCEE9DEC2B
:1001A100984005FCEE9DFE0FD5F0E9E4CEFD22ED71
:1001B100F8F5F0EE8420D21CFEADF075F008EF2FBB
:1001C100FFED33FD4007985006D5F0F222C398FDAC
:0501D1000FD5F0EA2249
:1001D600C5F0F8A3E028F0C5F0F8E58215827002B4
:0601E6001583E038F02251
:0D01EC00EF2BFFEE3AFEED39FDEC38FC2262
:0E01F900C3EF9BFFEE9AFEED99FDEC98FC2201
:10020700E88FF0A4CC8BF0A42CFCE98EF0A42CFC96
:100217008AF0EDA42CFCEA8EF0A4CDA8F08BF0A414
:100227002DCC3825F0FDE98FF0A42CCD35F0FCEB73
:100237008EF0A4FEA9F0EB8FF0A4CFC5F02ECD3938
:0F024700FEE43CFCEAA42DCE35F0FDE43CFC22A5
:1002560075F008758200EF2FFFEE33FECD33CDCC5F
:1002660033CCC58233C5829BED9AEC99E5829840E2
:100276000CF582EE9BFEED9AFDEC99FC0FD5F0D6BF
:10028600E4CEFBE4CDFAE4CCF9A88222B800C1B9E9
:100296000059BA002DEC8BF084CFCECDFCE5F0CB27
:1002A600F97818EF2FFFEE33FEED33FDEC33FCEB60
:1002B60033FB10D703994004EB99FB0FD8E5E4F91B
:1002C600FA227818EF2FFFEE33FEED33FDEC33FC08
:1002D600C933C910D7059BE99A4007EC9BFCE99AFC
:1002E600F90FD8E0E4C9FAE4CCFB2275F010EF2F41
:1002F600FFEE33FEED33FDCC33CCC833C810D70741
:100306009BEC9AE899400AED9BFDEC9AFCE899F87B
:0E0316000FD5F0DAE4CDFBE4CCFAE4C8F9220E
:0D032400EF4BFFEE4AFEED49FDEC48FC22D8
:10033100EB9FF5F0EA9E42F0E99D42F0EC6480C843
:0603410064809845F022E3
:10034700EB9FF5F0EA9E42F0E99D42F0E89C45F00C
:010357002283
:10035800E8600FECC313FCED13FDEE13FEEF13FF83
:03036800D8F122A7
:10036B00E8600FEFC333FFEE33FEED33FDEC33FCF0
:03037B00D8F12294
:0C037E00E0FCA3E0FDA3E0FEA3E0FF22F2
:0C038A00E0F8A3E0F9A3E0FAA3E0FB22F6
:0C039600ECF0A3EDF0A3EEF0A3EFF022DA
:1003A200A8828583F0D083D0821203B91203B912D6
:1003B20003B91203B9E473E493A3C583C5F0C583FB
:1003C200C8C582C8F0A3C583C5F0C583C8C582C8A5
:0103D2002208
:0C03D300A42582F582E5F03583F5832235
:1003DF00F8E0FBA3A3E0F925F0F0E58215827002A7
:0703EF001583E0FA38F0224B
:0903F600EBF0A3EAF0A3E9F02208
:1003FF00D083D082F8E4937012740193700DA3A38D
:10040F0093F8740193F5828883E4737402936860A0
:06041F00EFA3A3A380DFA0
:10042500EC8EF0A4CCC5F0CCCDF8EFA4CEC5F02D64
:10043500FDE43CFCE8A42EC8C5F03DFDE43CFCEF22
:0D044500A4FFE5F028FEE43DFDE43CFC22B0
:10045200EF4E6012EF60010EEDBB010B89828A83C1
:10046200F0A3DFFCDEFA2289F05007F709DFFCA9CE
:0C047200F022BBFEFCF309DFFCA9F02225
:00000001FF
