:030000000214E601
:1014E600787FE4F6D8FD9060007F007E07E4F0A3E5
:0A14F600DFFCDEFA75812302153BCE
:0C000300000000000000000000000000F1
:0B1FB200EF1FAC0670011E4C70F62201
:101EEA00AB07AA06EB1BAE0270011A4E600C7FAA62
:0B1EFA007E05121FB275D9AA80EA22F3
:100FBA00907120E04480F07F057E00121FB2E4FFAA
:100FCA00FE121EEA75A75575AC5C9071327450F02A
:100FDA009071307403F0907136742FF090715C74D4
:100FEA0003F090715BE054FCF07F18EF2466FDE497
:100FFA0034718D82F583E4F00FEFB433EE90401133
:10100A00E4935407FF90711CE054F84FF090401796
:10101A00E493547FFF90711DE054804FF09040108C
:10102A00E493FF5401C43333335480FE907123E0B8
:10103A00547F4EF0EFC313543F4440FFA3E0548063
:10104A004FF0904012E493FF540FFE907146E05423
:10105A00F04EF0EFC4540FFF90714FE054F04FF090
:10106A00904013E493543FFF907140E054C04FF016
:10107A00904014E493907126F0904015E493907197
:0B108A0028F0904016E49390712AF0CB
:011095002238
:071FDB00E475F0010201D6DC
:101B9D00E5B154CF42B153A8BFD2AF75D102789CF5
:101BAD00E254E3F2E2441CF2E254FCF2E24401F2AC
:101BBD0008E2547FF2E24420F278A17401F2187425
:101BCD0076F2789CE2541FF2E244C0F243A8402220
:0300210002116A5F
:10116A00C0E0C0F0C083C082C0D075D000C000C04B
:10117A0001C002C003C004C005C006C007789DE2D2
:10118A0020E70302121FE24480F23014069060370F
:10119A00E004F0906102121FDB9060A4E0FEA3E07D
:1011AA00FFE4FCFD7BFF7AFFF9F8D3120331400616
:1011BA009060A4121FDB90603F12037EEF2401FFB0
:1011CA00E43EFEE43DFDE43CFC90603F1203969051
:1011DA0060F8121FDBC39060F9E094D09060F8E0E9
:1011EA0094074008E4F0A3F09060F7F09060FB12D7
:1011FA001FDBC39060FCE094649060FBE0940040C5
:10120A0008E4F0A3F09060FAF09060A6121FDB9059
:10121A0060F5121FDBD007D006D005D004D003D06A
:10122A0002D001D000D0D0D082D083D0F0D0E0322A
:0D17BB00C116C1174160FD004260FE000034
:10000F0012037EEF2401FFE43EFEE43DFDE43CFCE1
:01001F0022BE
:101B5800E5B254FC42B253A9FED2AF75D1049071DC
:101B680000E054E3F0E0F0E054FCF0E04401F090D1
:101B780071057409F0907104745FF0907101E0547C
:101B88007FF0E04420F0907100E0541FF0E044C082
:051B9800F043A9012249
:03002400020EC405
:100EC400C0E0C0F0C083C082C0D075D000C000C0F4
:0D0ED40001C002C003C004C005C006C00775
:0E0EE100907101E020E703020F9FE04480F0D3
:100EEF009060FDE004F0E0C394144023E4F09060C0
:100EFF00E375F0011201D6C39060E4E0945890605E
:0F0F0F00E3E094024009201906E4F0A3F0D219A0
:100F1E0030821620160F9060DF12000F9060DF12E5
:0B0F2E000396121C1BD2168002C21694
:100F39009060FEE475F0011201D6C39060FFE09461
:100F4900149060FEE094004032E4F0A3F09060D386
:100F590012000F9060D3120396E47F587E02FDFCC5
:100F69009060D312038AC3120347400F20180C90D4
:0B0F790060D31203A200000000D21899
:100F840030951620170F9060CF12000F9060CF128B
:0B0F94000396121CD2D2178002C21775
:100F9F00D007D006D005D004D003D002D001D000A6
:0B0FAF00D0D0D082D083D0F0D0E03250
:101A720090603A12037E74302FF582E43460F5836D
:101A8200229060BCE0FF242DF582E43460F58322CD
:101A92007D00EF75F00FA42400F9746035F0FA7B35
:101AA2000122E5822EF582E43583F58322E4F0906B
:101AB2006033E014F090000F22906039E4F09060FF
:031AC20038F022D7
:0A1FBD00E4906037F0C213D2142242
:0A1FC700C214E4906037F0C2132248
:101E680078C2E2543FF2E254FCF2E24440F290714C
:101E780081E04404F0907175E04401F043AA20D257
:0B1E8800AF75D60175D59F75D21122F1
:03004B00020B861F
:100B8600C0E0C0F0C083C082C0D075D000C000C035
:0D0B960001C002C003C004C005C006C007B6
:100BA3009060CEE4F0E5D420E503020C8BE5D7F0AA
:100BB300201504E0B4A509906033E0C39403400317
:100BC300020C889060CEE0B4A508D215121ABB12AD
:100BD3001FBD906039E0B401089060CEE0906038AA
:100BE300F0121A72E06003020C8B9060CEE0FF906B
:100BF300603A12038A90600075F00FEB1203D3EA98
:100C030075F00FA42583F583C083C082906039E01B
:100C1300FE04F0D082D083121AA4EFF0906037E480
:100C2300F0A3E06063E0FFA3E06F705C906038E0E6
:100C3300FB90603A12037E742D2F121A8AEBF0C2D6
:100C430015121ABB121A727401F0906033E004F0AB
:100C530090603A12037EEF2401FFE43EFEE43DFD83
:100C6300E43CFC90603A120396E47F03FEFDFC90A3
:100C7300603A12038AC3120347400A90603A120390
:080C8300A200000000121FC7CF
:100C8B00D007D006D005D004D003D002D001D000BD
:0B0C9B00D0D0D082D083D0F0D0E03267
:0D1F7F00E5D430E4FB8FD7E5D430E4FB223D
:100CA600E49060BCF0A3F0C21C906037E0D3940AD5
:100CB600400F121FC7E4906039F0906038F0C215FB
:100CC60022E49060BCF09060BCE0FFC39403400354
:100CD600020DB774302F121A7BE07003020DAE902E
:100CE60060BCE075F00FA42401F582E43460F5835E
:100CF600E0FE742D2F121A8AE06E601A9060BCE036
:100D06002430121A7B121AAFC083C082121A92D0F4
:060D160007D006020452A2
:100D1C00E49060BEF09060BDF0A3F0121A83E01472
:100D2C00FE9060BEE0FDC39E5022EF75F00FA42430
:100D3C0000F582E43460F583E5822D121AA7E0FFFA
:100D4C009060BDE02FF0A3E004F080CF9060BDE098
:100D5C00F0121A83E0FEEF75F00FA424FFF582E485
:100D6C00345FF583121AA4E0FF9060BDE06F60025F
:020D7C00D21C87
:100D7E00301C1DC21C9060BCE0FF2430121A7B1286
:100D8E001AAFC083C082121A92D007D00612045234
:100D9E009060BCE02434F582E43460F5837401F095
:090DAE009060BCE004F0020CCCE2
:010DB7002219
:0F1F70001201F99060C11203969060C102037EC6
:101E3C0078C3E24403F218E2440CF2786AE2447884
:101E4C00F27591FF907123E05498F0E0441EF090ED
:0C1E5C0071227407F0439E7043994022ED
:101D0B005399E0EF24FD60142402701E907123E0C0
:101D1B0054D8F0E0445AF0439904800E907123E0BC
:101D2B0054D8F0E0445BF04399017869E24448F2FF
:071D3B007F017E00021EEA99
:100027007869E24401F2786BE230E1FA7402F2AFE8
:1000370093EF75F010A4FFAEF0E594C4540FFDEFF5
:030047004DFF2248
:10109600E49060BFF0A3F0A31203A200000000E4F6
:1010A6009060C5F0A3F074FFA3F0A3F0E4A3F0F002
:1010B6001200279060BFEEF0A3EFF09060C9E0C386
:1010C600940240549060C5E0FEA3E0FF9060BFE04C
:1010D600FCA3E0FDD39FEC9E40089060C5ECF0A316
:1010E600EDF09060C7E0FEA3E0FFC3ED9FEC9E50DD
:1010F6000F9060BFE0FFA3E09060C7CFF0A3EFF0D2
:101106009060C112038A9060BFE0FEA3E0FFE4FC9A
:10111600FD1201ECA31203969060C9E004F0E0C34F
:101126009414408C121F79C006C0079060C5E0FE7B
:10113600A3E0FBAA06E4F9F8D007D006121F70C098
:1011460006C0079060C7E0FEA3E0FBAA06E4F8D05D
:1011560007D006121F7078041203589060BFEEF095
:03116600A3EFF004
:011169002263
:101E0E00A3F078E3E254FCF2E24401F2907192E422
:101E1E00F0229060C9E004F0E0C3940822C2A4C28C
:0E1E2E0096D2977F04FE22FFE0FEA80708224E
:1019C400E4FF78D3E2543FF2E24440F290718DE4B4
:1019D400F0E254CFF2E24410F290718CE4F0121E63
:1019E40010C297C296121904EF702A7D0A7F8C12D6
:1019F40012EF7D017F881212EF7D017F861212EFB4
:101A0400E4FD7F821212EFE4FD7F841212EFE4FD05
:081A14007F801212EF021B1289
:101F0500E4FDEE25E0FEEF30E004EE4401FEEFC314
:091F150013FF0DEDB408EBAF065B
:011F1E0022A0
:02182A00AC0709
:10182C00E49060BDF0AF05121F05EC64816019EC0B
:10183C0064836014EC6485600FEC6487600AEC646C
:08184C00896005EC648D704316
:10185400E49060BEF0A3F0EC64816004ECB4830611
:10186400EF547FFF8017EC64856004ECB48706EFC7
:10187400543FFF8008ECB48904EF541FFFEFC454B5
:101884000FFE9060BEF0EF540FFFA3F0EE75F00A68
:03189400A42FFF7F
:01189700222E
:051619009060BDEFF040
:10161E00E4A3F0121E0E121E2B121FB2E49060BF36
:10162E00F012168D9060BFE09060BD121E358002E4
:10163E00C313D8FC30E004D2A48002C2A47F047E7F
:10164E0000121FB212169740D878E3E254FCF278DB
:10165E00E0E24410F2E49060BFF09060BEE025E05E
:10166E00F012168D30A4079060BEE04401F0121601
:0E167E009740E7C296C297C2A49060BEE0FFFC
:10168C0022C2967F047E00121FB222D2967F047E65
:0F169C0000121FB29060BFE004F0E0C394082278
:051F38009060BCEFF019
:101F3D00E4FE121619AE079060BCE0FFAD06021864
:011F4D002A69
:0816AB009060C7EFF0A3EDF021
:1016B300E4121E0E121E2B121FB2E49060C9F01228
:1016C30017319060C9E09060C7121E358002C313C2
:1016D300D8FC30E004D2A48002C2A4121720121E48
:1016E3002040DCE49060C9F01217319060C9E0FF3C
:1016F3009060C8E0FEA807088002C313D8FC30E05E
:1017030004D2A48002C2A4121720121E2040D9C200
:0C171300967F047E00121FB2C297C2A491
:10171F00227F047E00121FB2D2967F047E00121F1A
:0C172F00B222C2967F047E00121FB2227C
:10190400121B12D390607AE09433906079E09408CB
:101914005048C3A3E094D0906079E09407403B9092
:10192400607BE0D3940C5032E0C39401402CA3E0DC
:10193400D3941F5025E0C39401401FA3E0D394180F
:101944005018A3E0943C5012A3E0943C500C9060D7
:1019540079E0B40708A3E0B4D0037F00227F01221A
:0512EF009060C3EFF068
:1012F400A3EDF0EF6480601D9060C3E0FF64826042
:1013040014EF6484600FEF6486600AEF64886005FC
:05131400EF648C706C19
:10131900E49060C5F0A3F09060C4E0FFC3940A4074
:1013290007EF75F00A84A3F09060C4E075F00A84B1
:10133900AFF09060C6EFF09060C5E0FEC454F04F86
:101349009060C4F09060C3E0FF64806004EFB482F1
:10135900099060C4E0547FF080229060C3E0FF648C
:10136900846004EFB486099060C4E0543FF0800CB7
:0C1379009060C3E0B48805A3E0541FF0AE
:10138500E4FD7F8E1216AB9060C3E0FFA3E0FD1273
:0913950016AB7D807F8E0216ABC1
:101E93009060C0E0FD7F841212EF9060C1E0FD7F8F
:0E1EA300821212EF9060C2E0FD7F800212EF0B
:101B12007F81121F3890607FEFF07F83121F389011
:101B2200607EEFF07F85121F3890607DEFF07F8737
:101B3200121F3890607CEFF07F89121F3890607B13
:101B4200EFF07F8D121F38EF24D0FEE4340790604F
:061B520079F0A3CEF022A1
:101F4E0075AF3F8FAF75AEB975A402E5A530E1FB55
:011F5E002260
:101D42009060BD1203F675AF3F8FAF9060C0E0C3E5
:101D520094014022E5A530E0FB9060BDE475F001FE
:101D62001203DF120144F5A675AEB975A4019060A5
:071D7200C0E014F080D5224F
:101D79009060CA1203F69060CDE06027AE070FEEBF
:101D89002400FDE4343F8D82F583E493FE9060CA1C
:101D9900E475F0011203DFEE12015D9060CDE014ED
:041DA900F080D322D1
:101DAD0078E2E2543FF2E24440F2907191E0F01299
:101DBD001E68121C96121B9D121F8C121F99121E4B
:101DCD003C1219C4121B58121C597F017E00021EB1
:011DDD00EA1B
:101BDD00120FBA75D95590715EE054FEF075D9BBF0
:101BED00121DADD2A37FE87E03121EEAC2A375D9E2
:101BFD00AA12139E12123A12173B120DB81215802B
:0E1C0D0012144A120CA61208CE120A3780E0FA
:101C59007B017A6079BC9060CD740DF0E4FF121DB0
:101C6900799060C8E0B4C5249060BC12037E90608E
:101C79006C1203969060C012037E906070120396F6
:0C1C89009060C412037E906074120396F9
:011C9500222C
:101ECE00E4FF121F4E90607874C5F07B017A607942
:0C1EDE006C9060C0740DF0E4FF021D4227
:101964009060ACF09060BF12037EE47B64FAF9F8F7
:101974001202929060BF1203967B64E4FAF9F89025
:1019840060BF12037E02029274059060BCF0E09086
:1019940060A9F022AC00AD01AE02AF03E47B0AFA09
:1019A400F9F8020292AC00AD01AE02AF0378040272
:1019B400036B9060BEE024A8F582E43460F58322D2
:02047E00AB07CA
:10048000E49060BCF0A3F0A3F0A31203A20000006C
:10049000009060A874A5F09060AAEBF01203FF042E
:1004A000DF0104E80204F10304FA04050305050C66
:1004B0000605150705380805580905610B05700C78
:1004C00005850E05CA1005E71105EF1205FD140696
:1004D000101506911806A01906C31A0000070B1282
:1004E000198C9060880205F512198C9060890205BC
:1004F000F512198C90608A0205F512198C90608DA6
:100500000205F512198C90608E0205F512198C9077
:10051000608F0205F5740612198E90608012037EBA
:1005200078081203589060ABEFF090608012037E61
:100530009060ACEFF002070BD3906085E094FF90E1
:100540006084E094004006E4F0A374FFF012198C7C
:10055000906084E0A30205F512198C90608B02056F
:10056000F59060BC7407121991E47BE87A03800D62
:100570009060BC7407121991E47B4A7A06F9F890EE
:10058000606C0206219060BC740B12199190607926
:10059000E09060ABF0906079E0A3E09060ACF09008
:1005A000607BE09060ADF090607CE09060AEF09099
:1005B000607DE09060AFF090607EE09060B0F09081
:1005C000607FE09060B1F002070B9060BC7406128F
:1005D0001991906086E09060ABF0906086E0A3E0B7
:1005E0009060ACF002070B12198C9060908006129C
:1005F000198C906091E09060ABF002070B9060BCAA
:100600007407121991E47B64FAF9F8906070801114
:100610009060BC7407121991E47BA1FAF9F890601C
:100620007012037E121974121998C004C005C00616
:10063000C0077B0A12197F1219A9D003D002D0017A
:10064000D0001203249060ADEF121967121998C000
:1006500004C005C006C007E47B0A1219801219A95C
:10066000D003D002D001D000120324EF121964127B
:100670001998C004C005C006C007E47B0A1219809F
:100680001219A9D003D002D001D00012032402070E
:10069000069060BC7406121991E47BE87A03800D21
:1006A0009060BC7406121991E47B4A7A06F9F890BE
:1006B000607012037E121974EB1219649060ABEB38
:1006C000F08048906084E0FEA3E0FF7C027D6D1224
:1006D000016F0C7DE8120181E4FCFD9060BF120304
:1006E00096E47FFFFEFDFC9060BF12038AD31203E5
:1006F00047400A9060BF1203A2000000FF12198C4D
:100700009060BF12037E9060ABEFF0E49060BEF0AB
:100710009060BCE0FF9060BEE0C39F50319060BC31
:10072000E014FF9060BEE0B5070B9060BDE0FFA352
:100730001219B9EFF01219B6E0FF121F7F1219B6A5
:10074000E0FF9060BDE02FF0A3E004F080C27F01E5
:050750007E00021EEA1C
:101C960078E3E254F3F218E254CFF208E2543FF24A
:101CA60078F2E254FCF278D3E254FCF218E2543FA4
:101CB600F2E254FCF278C3E2543FF2E254CFF278F7
:0C1CC600E2E254FCF278E0E24401F22279
:10139E00C3906103E094C8906102E0940050030290
:1013AE001449E4F0A3F090608D30A503F08003742F
:1013BE0001F0D20330A207E490608EF080069060B8
:1013CE008E7401F0D204208607E4906088F0804588
:1013DE002087089060887401F0803A209008906011
:1013EE00887402F0802F2093089060887403F08038
:1013FE00242094089060887404F0801920B008901E
:10140E0060887405F0800E90608820A7057406F041
:10141E00800374FFF0D20120A0089060907401F058
:10142E008005E4906090F0D20F20A1089060917436
:0C143E0001F08005E4906091F0D20822DB
:1017C800C1184460CF000000004460D3000000004E
:0E17D8004460D7000000004460DB0000000009
:0C1FA60012038A0201ECE4FDFC02038A35
:0D1F8C0078D3E254F3F278D0E24420F22240
:101CD2009060D712037E9060D3121FA69060D71235
:101CE20003969060D31203A2000000009060DB1202
:101CF200037E9060CF121FA69060DB120396906065
:091D0200CF1203A2000000002230
:10123A009060BC1203A2000000009060C01203A2DA
:10124A00000000007FF47E019060D7121FACC31229
:10125A00034750062018030212EE7F2E7E04906088
:10126A00DB121FAC120207E47B03FAF9F8120292AE
:10127A009060C012039630180C9060BC1203A20052
:10128A000000008027E47F24FEFDFC9060C012036A
:10129A008A120207E47B0AFAF9F81202929060D7DE
:1012AA0012038A1202929060BC1203969060A012F6
:1012BA00037E9060C0121FA69060A01203969060F1
:1012CA00DB1203A2000000009060D71203A2000004
:1012DA000000C2189060BC12037E906084EEF0A3F6
:0412EA00EFF0D20649
:0112EE0022DD
:061FE2009060E902038A91
:0D1F990078C2E254CFF278C0E24404F22294
:101C1B009060E512037E9060DF12038A1201EC9054
:101C2B0060E51203969060DF1203A2000000001221
:101C3B001FE29060E3E0FEA3E0FFE4FCFD1201EC89
:0E1C4B009060E9120396E49060E3F0A3F022AB
:10173B00E47FF47E01FDFC121FE2C312034750034A
:10174B0030196C30190C9060BC1203A20000000021
:10175B00801CE47F607EEAFDFC9060E512038A1238
:10176B000207121FE21202929060BC120396906065
:10177B00E51203A2000000009060E91203A2000032
:10178B000000C219E47FFF7EFFFDFC9060BC1203DA
:10179B008AC3120347400A9060BC1203A20000FFE9
:0F17AB00FF9060BC12037E906080120396D205FF
:0117BA00220C
:0417E60041609300CB
:101DDE0012037EEF2401FFE43EFEE43DFDE43CFCF5
:101DEE002212037E1201F9E47B64FAF9F8C30203AE
:101DFE00477F7F7E967D987C0012038AC30203473D
:100DB800C39060A5E094E89060A4E09403400F30ED
:100DC8001A0C121ECEC21AE49060A4F0A3F0E47FBD
:100DD800E87E03FDFC9060A0121E0740717F187E1C
:100DE800C67D9A7C3B90606C121E07500C90606C1C
:100DF800121DDE90606C120396906070121DFF50F9
:100E08000C906070121DDE906070120396906074F2
:100E1800121DFF500C906074121DDE906074120356
:100E2800969060A012037EC3EF94E8FFEE9403FE51
:0E0E3800ED9400FDEC9400FC9060A012039677
:100E4600906093E004F0E0C3940A4004E4F0D21A00
:100E560090609412038A90606C121DEF500E9060A1
:100E66006C12037E906094120396D20A90609812D8
:100E7600038A906070121DEF500E90607012037E10
:100E8600906098120396D20B90609C12038A906031
:100E960074121DEF500E90607412037E90609C12C7
:100EA6000396D20CC39060A7E094889060A6E09465
:0D0EB60013400AE4F0A3F0D20AD20BD20CD4
:010EC300220C
:0217EA00C10F2D
:0A1FD1009060BCE0FF75F00FA42241
:1008CE00E49060BCF0F09060BCE0FFC39403400382
:1008DE00020A3674342FF582E43460F583E0700337
:1008EE00020A2D9060BCE0FB75F00FA42402F58285
:1008FE00E43460F583E01203FF09238009288B0995
:10090E002D8C09378E09329409CE9809D29909D6C1
:10091E009A000009D8D2000209D8D20A0209D8D208
:10092E000B0209D8D20C0209D8D20DEB75F00FA428
:10093E002403F582E43460F583E0FFE4FCFDFE78E9
:10094E000812036BEB75F00FA42404F582E43460F7
:10095E00F583E07C002FFFEC3E906079F0A3EFF082
:10096E00121FD12405F582E43460F583E090607B9C
:10097E00F0EF75F00FA42406F582E43460F583E001
:10098E0090607CF0121FD12407F582E43460F58369
:10099E00E090607DF0EF75F00FA42408F582E4344A
:1009AE0060F583E090607EF09060BCE075F00FA47F
:1009BE002409F582E43460F583E090607FF0800ACC
:1009CE00D2108006D2118002D212906033E0D394FE
:1009DE00004003E014F09060BCE0FF2434F582E4A4
:1009EE003460F583E4F0742D2FF582E43460F583E2
:1009FE00E4F074302FF582E43460F583E4F0FE7F8A
:100A0E000FC006C007FD9060BCE075F00FA4240077
:100A1E00F9746035F0FA7B01D007D00612045290BB
:080A2E0060BCE004F00208D4F2
:010A3600229D
:100A3700300046C2009060F7E0703E04F0FF1204F9
:100A47007E7F0212047E7F0712047E120B7B7F09D2
:100A570012047E7F0B12047E7F0C12047E7F141219
:100A6700047E7F1512047E121B127F0E12047E7FF6
:100A77001012047E7F1112047E300307C2037F0425
:100A870012047E300407C2047F0512047E3001077A
:100A9700C2017F0112047E300207C2027F021204E4
:100AA7007E300507C2057F0712047E300605C206A1
:100AB700120B7B300707C2077F0912047E30080735
:100AC700C2087F1212047E300A02C20A300B07C224
:100AD7000B7F0B12047E300C02C20C300F07C20FC3
:100AE7007F1112047E300F07C20F7F1112047E3070
:100AF7000D23C20D9060FAE0701B78BC7C607D010D
:100B07007B017A607979FE7F0712011E121E93908E
:100B170060FA7401F0300E07C20E7F1012047E30A7
:100B27001019C21090606C1203A2000000009060C0
:100B3700A01203A200000000121ECE301119C2112C
:100B47009060701203A2000000009060A01203A240
:100B570000000000121ECE301219C21290607412EB
:100B670003A2000000009060A01203A20000000092
:0F0B7700121ECE227F0812047E7F1A12047E22E5
:1017EC0044603F00000000602860430000000000DF
:1017FC0000000000000000000000000000000000DD
:10180C0000000000000000000000000000000000CC
:0B181C0000000041606B0041603E00D6
:101AC500FFEE34F9FEE434FFFDE434FFFCE4FAF9FB
:101AD500F8120207E4229060BFE0FEA3E0FF22FABD
:101AE500F9F8120292AD07C322FFEE34FAFEE43490
:101AF500FFFDE434FFFCE42225E02443F582E434D1
:0D1B050060F58322FDFC12038AC302034732
:04189800AB07AA06EA
:10189C00E49060BFF0A31203A200000000AE02AF00
:1018AC000390606BE0FD04F0ED121AFDEEF0A3EF77
:1018BC00F090606BE0C394144002E4F0E49060BFDD
:1018CC00F09060C012038A9060BFE0121AFDE0FE37
:1018DC00A3E0FFE4FCFD1201EC9060C012039690B3
:1018EC0060BFE004F0E0B414D8E47B14FAF9F8908B
:0818FC0060C012037E0202929B
:101F5F00E4FDED121AFDEEF0A3EFF00DEDB414F267
:011F6F00224F
:080755009060BFEEF0A3EFF08D
:10075D00E4FDC3EF94C5EE940B500A121ADB9455C9
:10076D00EE940150057DFF0208CBD3EF94B9EE94C2
:10077D00074005E4FD0208CBD3EF9433EE9404500B
:10078D00057D640208CBD3EF94B9EE9407501FEFAB
:10079D0094D0EE94064017121ADBEF24307B121220
:1007AD001AC57BE9121AE474129DFD0208CB121AC8
:1007BD00DBD394D0EE9406502AEF9427EE940640A6
:1007CD00229060BFA3EF24D97B22121AC57BA912F8
:1007DD001AE474229DFDC3941240030208CB7D12CE
:1007ED000208CB121ADBD39427EE9406502DEF940A
:1007FD00A8EE940540259060BFA3EF2458121AEE81
:10080D007B33121AD37B7F121AE474339DFDC3948C
:10081D002240030208CB7D220208CB121ADBD394AF
:10082D00A8EE9405502AEF944AEE9405402290606C
:10083D00BFA3EF24B6121AEE7B44121AD37B5E12BD
:10084D001AE474449DFDC3943350737D330208CB79
:10085D00121ADBD3944AEE9405502DEF94BCEE940E
:10086D000440259060BFA3EF2444FFEE34FB121A21
:10087D00F27B54121AD37B8E121AE474549DFDC36D
:10088D009444503A7D448036121ADBD394BCEE94D6
:10089D0004502BEF9433EE940440239060BFA3EFEC
:1008AD0024CDFFEE34FB121AF27B64121AD37B892E
:1008BD00121AE474649DFDC3945450027D54AF0527
:0108CD002208
:10158000E49060BCF0A3F0A3F07F03121D0B1216D1
:0C1590000D1218989060BDEEF0A3EFF073
:10159C0090603EE070327FF47E01A3121B0940285C
:1015AC0090603F1203A20000000012160D121F5F84
:1015BC00906100E0FEA3E0FF9060BDEEF0A3EFF0C1
:0815CC001215F790603E04F0D7
:1015D400E47FE87E0390603F121B09401590603F52
:1015E4001203A2000000009060BDE0FEA3E0FF1221
:0215F40015F7E9
:1015F600221207559060BCEFF090608BF0E490608B
:10160600BDF0A3F0D20722121096906100EEF0A36F
:03161600EFF022D0
:02182700C19B63
:101A1C00E49060F5F0A3F09060BEE0906089F090E7
:101A2C0060BCE0FFA3E0906086CFF0A3EFF0D20E95
:101A3C00D202229060F112037E9060ED12038A12A2
:101A4C0002929060F11203969060F102037E906016
:101A5C00BCEEF0A3EFF09060BCA3E0FF121EB1A3AC
:061A6C00EFF09060F12292
:101F1F007C0A7D50120425E47B0AFAF9F81202922A
:091F2F00E4FB7A10F9F8020292B9
:101EB100EFC3949640047E6480107E007C007D64B4
:0C1EC10012016F7D96120181AE07AF0682
:011ECD0022F2
:10144A00E49060BCF0A3F0A3F07F01121D0B906042
:10145A00F112038AC000C001C002C003121096E450
:10146A00FCFDD003D002D001D0001201EC9060F153
:10147A001203969060ED12037EEF2401FFE43EFE14
:10148A00E43DFDE43CFC9060ED120396301B201213
:10149A001A3F121F1F121A5A1203A20000000090CC
:1014AA0060ED1203A200000000121A1CC21B22C324
:1014BA009060F6E094D09060F5E09407401D121A0F
:1014CA003F121F1F121A5A1203A200000000906056
:0B14DA00ED1203A200000000121A1C1B
:0114E50022E4
:10150000021BDDE493A3F8E493A34003F68001F209
:1015100008DFF48029E493A3F85407240CC8C333EC
:10152000C4540F4420C8834004F456800146F6DFBB
:10153000E4800B01020408102040809017BBE47E79
:10154000019360BCA3FF543F30E509541FFEE493B0
:10155000A360010ECF54C025E060A840B8E493A377
:10156000FAE493A3F8E493A3C8C582C8CAC583CAA2
:10157000F0A3C8C582C8CAC583CADFE9DEE780BE5A
:0118290000BE
:10004E00E709F608DFFA8046E709F208DFFA803E94
:10005E0088828C83E709F0A3DFFA8032E309F60881
:10006E00DFFA8078E309F208DFFA807088828C83E9
:10007E00E309F0A3DFFA806489828A83E0A3F6089D
:10008E00DFFA805889828A83E0A3F208DFFA804C77
:10009E0080D280FA80C680D4806980F2803380104E
:1000AE0080A680EA809A80A880DA80E280CA8033B7
:1000BE0089828A83ECFAE493A3C8C582C8CCC5832F
:1000CE00CCF0A3C8C582C8CCC583CCDFE9DEE780FF
:1000DE000D89828A83E493A3F608DFF9ECFAA9F07E
:1000EE00EDFB2289828A83ECFAE0A3C8C582C8CCD4
:1000FE00C583CCF0A3C8C582C8CCC583CCDFEADEED
:10010E00E880DB89828A83E493A3F208DFF980CC4E
:10011E0088F0EF60010E4E60C388F0ED2402B40447
:10012E000050B9F582EB2402B4040050AF232345EE
:06013E00822390009E7375
:10014400BB010689828A83E0225002E722BBFE02B9
:09015400E32289828A83E49322EC
:10015D00BB010689828A83F0225002F722BBFE0181
:02016D00F3227B
:10016F00EF8DF0A4A8F0CF8CF0A428CE8DF0A42EA4
:02017F00FE225E
:10018100BC000BBE0029EF8DF084FFADF022E4CC62
:10019100F875F008EF2FFFEE33FEEC33FCEE9DEC2B
:1001A100984005FCEE9DFE0FD5F0E9E4CEFD22ED71
:1001B100F8F5F0EE8420D21CFEADF075F008EF2FBB
:1001C100FFED33FD4007985006D5F0F222C398FDAC
:0501D1000FD5F0EA2249
:1001D600C5F0F8A3E028F0C5F0F8E58215827002B4
:0601E6001583E038F02251
:0D01EC00EF2BFFEE3AFEED39FDEC38FC2262
:0E01F900C3EF9BFFEE9AFEED99FDEC98FC2201
:10020700E88FF0A4CC8BF0A42CFCE98EF0A42CFC96
:100217008AF0EDA42CFCEA8EF0A4CDA8F08BF0A414
:100227002DCC3825F0FDE98FF0A42CCD35F0FCEB73
:100237008EF0A4FEA9F0EB8FF0A4CFC5F02ECD3938
:0F024700FEE43CFCEAA42DCE35F0FDE43CFC22A5
:1002560075F008758200EF2FFFEE33FECD33CDCC5F
:1002660033CCC58233C5829BED9AEC99E5829840E2
:100276000CF582EE9BFEED9AFDEC99FC0FD5F0D6BF
:10028600E4CEFBE4CDFAE4CCF9A88222B800C1B9E9
:100296000059BA002DEC8BF084CFCECDFCE5F0CB27
:1002A600F97818EF2FFFEE33FEED33FDEC33FCEB60
:1002B60033FB10D703994004EB99FB0FD8E5E4F91B
:1002C600FA227818EF2FFFEE33FEED33FDEC33FC08
:1002D600C933C910D7059BE99A4007EC9BFCE99AFC
:1002E600F90FD8E0E4C9FAE4CCFB2275F010EF2F41
:1002F600FFEE33FEED33FDCC33CCC833C810D70741
:100306009BEC9AE899400AED9BFDEC9AFCE899F87B
:0E0316000FD5F0DAE4CDFBE4CCFAE4C8F9220E
:0D032400EF4BFFEE4AFEED49FDEC48FC22D8
:10033100EB9FF5F0EA9E42F0E99D42F0EC6480C843
:0603410064809845F022E3
:10034700EB9FF5F0EA9E42F0E99D42F0E89C45F00C
:010357002283
:10035800E8600FECC313FCED13FDEE13FEEF13FF83
:03036800D8F122A7
:10036B00E8600FEFC333FFEE33FEED33FDEC33FCF0
:03037B00D8F12294
:0C037E00E0FCA3E0FDA3E0FEA3E0FF22F2
:0C038A00E0F8A3E0F9A3E0FAA3E0FB22F6
:0C039600ECF0A3EDF0A3EEF0A3EFF022DA
:1003A200A8828583F0D083D0821203B91203B912D6
:1003B20003B91203B9E473E493A3C583C5F0C583FB
:1003C200C8C582C8F0A3C583C5F0C583C8C582C8A5
:0103D2002208
:0C03D300A42582F582E5F03583F5832235
:1003DF00F8E0FBA3A3E0F925F0F0E58215827002A7
:0703EF001583E0FA38F0224B
:0903F600EBF0A3EAF0A3E9F02208
:1003FF00D083D082F8E4937012740193700DA3A38D
:10040F0093F8740193F5828883E4737402936860A0
:06041F00EFA3A3A380DFA0
:10042500EC8EF0A4CCC5F0CCCDF8EFA4CEC5F02D64
:10043500FDE43CFCE8A42EC8C5F03DFDE43CFCEF22
:0D044500A4FFE5F028FEE43DFDE43CFC22B0
:10045200EF4E6012EF60010EEDBB010B89828A83C1
:10046200F0A3DFFCDEFA2289F05007F709DFFCA9CE
:0C047200F022BBFEFCF309DFFCA9F02225
:00000001FF
