:030000000214D512
:1014D500787FE4F6D8FD9060007F007E07E4F0A3F6
:0A14E500DFFCDEFA75812302152AF0
:0C000300000000000000000000000000F1
:0B1FAA00EF1FAC0670011E4C70F62209
:101EE200AB07AA06EB1BAE0270011A4E600C7FAA6A
:0B1EF2007E05121FAA75D9AA80EA2203
:100FAC00907120E04480F07F057E00121FAAE4FFC0
:100FBC00FE121EE275A75575AC5C9071327450F040
:100FCC009071307403F0907136742FF090715C74E2
:100FDC0003F090715BE054FCF07F18EF2466FDE4A5
:100FEC0034718D82F583E4F00FEFB433EE90401141
:100FFC00E4935407FF90711CE054F84FF0904017A5
:10100C00E493547FFF90711DE054804FF09040109A
:10101C00E493FF5401C43333335480FE907123E0C6
:10102C00547F4EF0EFC313543F4440FFA3E0548071
:10103C004FF0904012E493FF540FFE907146E05431
:10104C00F04EF0EFC4540FFF90714FE054F04FF09E
:10105C00904013E493543FFF907140E054C04FF024
:10106C00904014E493907126F0904015E4939071A5
:0B107C0028F0904016E49390712AF0D9
:011087002246
:071FD300E475F0010201D6E4
:101BE800E5B154CF42B153A8BFD2AF75D102789CAA
:101BF800E254E3F2E2441CF2E254FCF2E24401F261
:101C080008E2547FF2E24420F278A17401F21874D9
:101C180076F2789CE2541FF2E244C0F243A84022D4
:0300210002115C6D
:10115C00C0E0C0F0C083C082C0D075D000C000C059
:10116C0001C002C003C004C005C006C007789DE2E0
:10117C0020E703021211E24480F23014069060372B
:10118C00E004F09060F6121FD39060B0E0FEA3E094
:10119C00FFE4FCFD7BFF7AFFF9F8D3120331400624
:1011AC009060B0121FD390603F12037EEF2401FFBA
:1011BC00E43EFEE43DFDE43CFC90603F120396905F
:1011CC0060EC121FD3C39060EDE094D09060ECE023
:1011DC0094074008E4F0A3F09060EBF09060EF12FD
:1011EC001FD3C39060F0E094649060EFE0940040F3
:1011FC0008E4F0A3F09060EEF09060B2121FD39070
:10120C0060E9121FD3D007D006D005D004D003D08C
:10121C0002D001D000D0D0D082D083D0F0D0E03238
:0D17AA00C116C1174160F1004260F200005D
:10000F0012037EEF2401FFE43EFEE43DFDE43CFCE1
:01001F0022BE
:101BA300E5B254FC42B253A9FED2AF75D104907191
:101BB30000E054E3F0E0F0E054FCF0E04401F09086
:101BC30071057409F0907104745FF0907101E05431
:101BD3007FF0E04420F0907100E0541FF0E044C037
:051BE300F043A90122FE
:03002400020DCDFD
:100DCD00C0E0C0F0C083C082C0D075D000C000C0EC
:0D0DDD0001C002C003C004C005C006C0076D
:0E0DEA00907101E020E703020EA8E04480F0C3
:100DF8009060F1E004F0E0C394144023E4F09060C4
:100E0800D775F0011201D6C39060D8E0945890606D
:0F0E1800D7E094024009201B06E4F0A3F0D21BA0
:100E270030821620160F9060D312000F9060D312F5
:0B0E37000396121C28D2168002C2167F
:100E42009060F2E475F0011201D6C39060F3E09471
:100E5200149060F2E094004032E4F0A3F09060B8A5
:100E620012000F9060B8120396E47F587E02FDFCD8
:100E72009060B812038AC3120347400F201A0C90E5
:0B0E820060B81203A200000000D21AAA
:100E8D0030951620170F9060B412000F9060B412B9
:0B0E9D000396121CA1D2178002C2179E
:100EA800D007D006D005D004D003D002D001D0009E
:0B0EB800D0D0D082D083D0F0D0E03248
:101A6B0090603A12037E74302FF582E43460F58374
:101A7B00229060C4E0FF242DF582E43460F58322CC
:101A8B007D00EF75F00FA42400F9746035F0FA7B3C
:101A9B000122E5822EF582E43583F58322E4F09072
:101AAB006033E014F090000F22906039E4F0906006
:031ABB0038F022DE
:0A1FB500E4906037F0C213D214224A
:0A1FBF00C214E4906037F0C2132250
:101E380078C2E2543FF2E254FCF2E24440F290717C
:101E480081E04404F0907175E04401F043AA20D287
:0B1E5800AF75D60475D5E175D21122DC
:03004B00020B9B0A
:100B9B00C0E0C0F0C083C082C0D075D000C000C020
:0D0BAB0001C002C003C004C005C006C007A1
:100BB8009060D2E4F0E5D420E503020CA0E5D7F07C
:100BC800201504E0B4A509906033E0C39403400302
:100BD800020C9D9060D2E0B4A508D215121AB41286
:100BE8001FB5906039E0B401089060D2E090603899
:100BF800F0121A6BE06003020CA09060D2E0FF9044
:100C0800603A12038A90600075F00FEB1203D3EA82
:100C180075F00FA42583F583C083C082906039E006
:100C2800FE04F0D082D083121A9DEFF0906037E472
:100C3800F0A3E06063E0FFA3E06F705C906038E0D1
:100C4800FB90603A12037E742D2F121A83EBF0C2C8
:100C580015121AB4121A6B7401F0906033E004F0A4
:100C680090603A12037EEF2401FFE43EFEE43DFD6E
:100C7800E43CFC90603A120396E47F03FEFDFC908E
:100C8800603A12038AC3120347400A90603A12037B
:080C9800A200000000121FBFC2
:100CA000D007D006D005D004D003D002D001D000A8
:0B0CB000D0D0D082D083D0F0D0E03252
:0D1F7700E5D430E4FB8FD7E5D430E4FB2245
:100CBB00E49060C4F0A3F0C21D906037E0D3940AB7
:100CCB00400F121FBFE4906039F0906038F0C215EE
:100CDB0022E49060C4F09060C4E0FFC3940340032F
:100CEB00020DCC74302F121A74E07003020DC390F6
:100CFB0060C4E075F00FA42401F582E43460F58341
:100D0B00E0FE742D2F121A83E06E601A9060C4E01F
:100D1B002430121A74121AA8C083C082121A8BD0F4
:060D2B0007D0060204528D
:100D3100E49060C6F09060C5F0A3F0121A7CE01454
:100D4100FE9060C6E0FDC39E5022EF75F00FA42413
:100D510000F582E43460F583E5822D121AA0E0FFEC
:100D61009060C5E02FF0A3E004F080CF9060C5E073
:100D7100F0121A7CE0FEEF75F00FA424FFF582E477
:100D8100345FF583121A9DE0FF9060C5E06F600249
:020D9100D21D71
:100D9300301D1DC21D9060C4E0FF2430121A74126E
:100DA3001AA8C083C082121A8BD007D0061204522D
:100DB3009060C4E02434F582E43460F5837401F078
:090DC3009060C4E004F0020CE1B0
:010DCC002204
:0F1F68001201F99060C91203969060C902037EBE
:101E0C0078C3E24403F218E2440CF2786AE24478B4
:101E1C00F27591FF907123E05498F0E0441EF0901D
:0C1E2C0071227407F0439E70439940221D
:101CDA005399E0EF24FD60142402701E907123E0F2
:101CEA0054D8F0E0445AF0439904800E907123E0EE
:101CFA0054D8F0E0445BF04399017869E24448F231
:071D0A007F017E00021EE2D2
:100027007869E24401F2786BE230E1FA7402F2AFE8
:1000370093EF75F010A4FFAEF0E594C4540FFDEFF5
:030047004DFF2248
:10108800E49060C7F0A3F0A31203A200000000E4FC
:101098009060CDF0A3F074FFA3F0A3F0E4A3F0F008
:1010A8001200279060C7EEF0A3EFF09060D1E0C384
:1010B800940240549060CDE0FEA3E0FF9060C7E04A
:1010C800FCA3E0FDD39FEC9E40089060CDECF0A31C
:1010D800EDF09060CFE0FEA3E0FFC3ED9FEC9E50E3
:1010E8000F9060C7E0FFA3E09060CFCFF0A3EFF0D0
:1010F8009060C912038A9060C7E0FEA3E0FFE4FC99
:10110800FD1201ECA31203969060D1E004F0E0C355
:101118009414408C121F71C006C0079060CDE0FE89
:10112800A3E0FBAA06E4F9F8D007D006121F68C0AE
:1011380006C0079060CFE0FEA3E0FBAA06E4F8D063
:1011480007D006121F6878041203589060C7EEF0A3
:03115800A3EFF012
:01115B002271
:101DDE00A3F078E3E254FCF2E24401F2907192E453
:101DEE00F0229060D1E004F0E0C3940822C2A4C2B5
:0E1DFE0096D2977F04FE22FFE0FEA80708227F
:1019BD00E4FF78D3E2543FF2E24440F290718DE4BB
:1019CD00F0E254CFF2E24410F290718CE4F0121D6B
:1019DD00E0C297C29612195DEF702A7D0A7F8C12B4
:1019ED0012E17D017F881212E17D017F861212E1E5
:1019FD00E4FD7F821212E1E4FD7F841212E1E4FD29
:081A0D007F801212E1021B5D53
:101EFD00E4FDEE25E0FEEF30E004EE4401FEEFC31D
:091F0D0013FF0DEDB408EBAF0663
:011F160022A8
:02181B00AC0718
:10181D00E49060C5F0AF05121EFDEC64816019EC1B
:10182D0064836014EC6485600FEC6487600AEC647B
:08183D00896005EC648D704325
:10184500E49060C6F0A3F0EC64816004ECB4830618
:10185500EF547FFF8017EC64856004ECB48706EFD6
:10186500543FFF8008ECB48904EF541FFFEFC454C4
:101875000FFE9060C6F0EF540FFFA3F0EE75F00A6F
:03188500A42FFF8E
:01188800223D
:051608009060C5EFF049
:10160D00E4A3F0121DDE121DFB121FAAE49060C7A9
:10161D00F012167C9060C7E09060C5121E05800226
:10162D00C313D8FC30E004D2A48002C2A47F047E90
:10163D0000121FAA12168640D878E3E254FCF27805
:10164D00E0E24410F2E49060C7F09060C6E025E05F
:10165D00F012167C30A4079060C6E04401F012161B
:0E166D008640E7C296C297C2A49060C6E0FF16
:10167B0022C2967F047E00121FAA22D2967F047E7E
:0F168B0000121FAA9060C7E004F0E0C394082289
:051F30009060C4EFF019
:101F3500E4FE121608AE079060C4E0FFAD06021875
:011F45001B80
:08169A009060CFEFF0A3EDF02A
:1016A200E4121DDE121DFB121FAAE49060D1F0129B
:1016B20017209060D1E09060CF121E058002C31304
:1016C200D8FC30E004D2A48002C2A412170F121D6B
:1016D200F040DCE49060D1F01217209060D1E0FF7E
:1016E2009060D0E0FEA807088002C313D8FC30E067
:1016F20004D2A48002C2A412170F121DF040D9C254
:0C170200967F047E00121FAAC297C2A4AA
:10170E00227F047E00121FAAD2967F047E00121F33
:0C171E00AA22C2967F047E00121FAA229D
:10195D00121B5DD3906076E09433906075E094082F
:10196D005048C3A3E094D0906075E09407403B903D
:10197D006077E0D3940C5032E0C39401402CA3E087
:10198D00D3941F5025E0C39401401FA3E0D39418B6
:10199D005018A3E0943C5012A3E0943C500C90607E
:1019AD0075E0B40708A3E0B4D0037F00227F0122C5
:0512E1009060CBEFF06E
:1012E600A3EDF0EF6480601D9060CBE0FF64826048
:1012F60014EF6484600FEF6486600AEF648860050B
:05130600EF648C706C27
:10130B00E49060CDF0A3F09060CCE0FFC3940A4072
:10131B0007EF75F00A84A3F09060CCE075F00A84B7
:10132B00AFF09060CEEFF09060CDE0FEC454F04F84
:10133B009060CCF09060CBE0FF64806004EFB482EF
:10134B00099060CCE0547FF080229060CBE0FF648A
:10135B00846004EFB486099060CCE0543FF0800CBD
:0C136B009060CBE0B48805A3E0541FF0B4
:10137700E4FD7F8E12169A9060CBE0FFA3E0FD128A
:09138700169A7D807F8E02169AF1
:101E8B009060C8E0FD7F841212E19060C9E0FD7F95
:0E1E9B00821212E19060CAE0FD7F800212E127
:101B5D007F81121F3090607BEFF07F83121F3090DA
:101B6D00607AEFF07F85121F30906079EFF07F87FC
:101B7D00121F30906078EFF07F89121F30906077E0
:101B8D00EFF07F8D121F30EF24D0FEE4340790600C
:061B9D0075F0A3CEF0225A
:101F460075AF3F8FAF75AEB975A402E5A530E1FB5D
:011F56002268
:101D11009060C51203F675AF3F8FAF9060C8E0C306
:101D210094014022E5A530E0FB9060C5E475F00127
:101D31001203DF120144F5A675AEB975A4019060D6
:071D4100C8E014F080D52278
:101D48009060CE1203F69060D1E06027AE070FEEE8
:101D58002400FDE4343F8D82F583E493FE9060CE49
:101D6800E475F0011203DFEE12015D9060D1E0141A
:041D7800F080D32202
:101D7C0078E2E2543FF2E24440F2907191E0F012CA
:101D8C001E38121C66121BE8121F84121F91121EA1
:101D9C000C1219BD121BA3121DAD7F017E00021E79
:011DAC00E254
:101ABE00120FAC75D95590715EE054FEF075D9BB1E
:101ACE00121D7CD2A37FE87E03121EE2C2A3906099
:101ADE006C1203A2499602789060701203A2499686
:101AEE00027875D9AA12139012122C12172A120EFE
:101AFE00C312156F121439120CBB120907120A6F9A
:021B0E0080E075
:101DAD007B017A6079C49060D17409F0E4FF121D53
:101DBD00489060CCE0B4C5189060C412037E90606A
:101DCD006C1203969060C812037E90607012039699
:011DDD0022E3
:101EC600E4FF121F4690607474C5F07B017A607956
:0C1ED6006C9060C87409F0E4FF021D115C
:1018F500906093F09060C712037EE47B64FAF9F878
:101905001202929060C71203967B64E4FAF9F8908C
:1019150060C712037E02029274059060C4F0E090E5
:101925006090F022AC00AD01AE02AF03E47B0AFA91
:10193500F9F8020292AC00AD01AE02AF03780402E1
:10194500036B9060C6E0248FF582E43460F5832252
:08195500EFF09060C702037E71
:02047E00AB07CA
:10048000E49060C4F0A3F0A3F0A31203A200000064
:100490000090608F74A5F0906091EBF01203FF0460
:1004A000DC0104E50204EE0304F704050005050978
:1004B00006051207053508055509055E0B05730E7F
:1004C00005B80F05DB1005F811060614064C1506D5
:1004D000CD1806DC1906FF1A0000074412191D90FA
:1004E00060840205FE12191D9060850205FE121936
:1004F0001D9060860205FE12191D9060890205FE9E
:1005000012191D90608A0205FE12191D90608B025F
:1005100005FE740612191F90607C12037E78081283
:100520000358906092EFF090607C12037E9060938D
:10053000EFF0020744D3906081E094FF906080E088
:1005400094004006E4F0A374FFF012191D9060803F
:10055000E0A30205FE12191D9060870205FE90605F
:10056000C47408121922E47BE87A03F9F890606CED
:100570000206179060C4740B121922906075E09007
:100580006092F0906075E0A3E0906093F0906077E7
:10059000E0906094F0906078E0906095F0906079E1
:1005A000E0906096F090607AE0906097F090607BC9
:1005B000E0906098F00207449060C474071219221A
:1005C000906079E0906092F090607AE0906093F0B3
:1005D00090607BE0906094F00207449060C47406E1
:1005E000121922906082E0906092F0906082E0A305
:1005F000E0906093F002074412191D90608CE09027
:100600006092F00207449060C47408121922E47BDF
:1006100064FAF9F89060701219179060C712039687
:1006200012195778181203589060921219557810C1
:10063000120358906093121955780812035890606D
:1006400094121955906095EFF00207449060C474BD
:1006500007121922E47BA1FAF9F890607012037E68
:10066000121905121929C004C005C006C0077B0A6B
:1006700012191012193AD003D002D001D00012037F
:1006800024906094EF1218F8121929C004C005C014
:1006900006C007E47B0A12191112193AD003D002DE
:1006A000D001D000120324EF1218F5121929C0044A
:1006B000C005C006C007E47B0A12191112193AD00E
:1006C00003D002D001D00012032402073F9060C47F
:1006D0007406121922E47BE87A03800D9060C474DA
:1006E00006121922E47B4A7A06F9F8906070120328
:1006F0007E121905EB1218F5906092EBF080459090
:100700006080E0FEA3E0FF7C027D6D12016F0C7D36
:10071000E8120181E4FCFD9060C7120396E47FFFBC
:10072000FEFDFC9060C712038AD3120347400A9073
:1007300060C71203A2000000FF12191D1219579082
:100740006092EFF0E49060C6F09060C4E0FF9060CB
:10075000C6E0C39F50319060C4E014FF9060C6E0D3
:10076000B5070B9060C5E0FFA312194AEFF012190C
:1007700047E0FF121F77121947E0FF9060C5E02F96
:0E078000F0A3E004F080C27F017E00021EE2C2
:101C660078E2E254F3F208E254F3F218E254CFF2C7
:101C760008E2543FF278F2E254FCF278D3E254FCE4
:101C8600F218E2543FF2E254FCF278C3E2543FF217
:0B1C9600E254CFF278E2E254FCF222AC
:10139000C39060F7E094C89060F6E094004036E4B3
:1013A000F0A3F090608930A503F080037401F0D2BF
:1013B0000330A207E490608AF0800690608A74018E
:1013C000F0D20430A107E490608BF0800690608B2F
:1013D0007401F0D205208607E4906084F0804520F7
:1013E00087089060847401F0803A209008906084AF
:1013F0007402F0802F2093089060847403F080249E
:101400002094089060847404F0801920B0089060E3
:10141000847405F0800E90608420A7057406F08027
:101420000374FFF0D20120A00890608C7401F0805A
:0914300005E490608CF0D20F225B
:1017B700C11A4460B4000000004460B80000000093
:0E17C7004460BC000000004460C00000000050
:0C1F9E0012038A0201ECE4FDFC02038A3D
:0D1F840078D3E254F3F278D0E24420F22248
:101CA1009060BC12037E9060B8121F9E9060BC12BF
:101CB10003969060B81203A2000000009060C01269
:101CC100037E9060B4121F9E9060C01203969060D4
:091CD100B41203A200000000227D
:10122C009060C41203A2000000009060C81203A2D8
:10123C00000000007FF47E019060BC121FA4C3125A
:10124C0003475006201A030212E07F2E7E049060A2
:10125C00C0121FA4120207E47B03FAF9F8120292DF
:10126C009060C8120396301A0C9060C41203A2004E
:10127C000000008027E47F24FEFDFC9060C8120370
:10128C008A120207E47B0AFAF9F81202929060BC07
:10129C0012038A1202929060C41203969060AC12F0
:1012AC00037E9060C8121F9E9060AC1203969060F3
:1012BC00C01203A2000000009060BC1203A2000048
:1012CC000000C21A9060C412037E906080EEF0A3FE
:0412DC00EFF0D20756
:0112E00022EB
:061FDA009060DD02038AA5
:0D1F910078C2E254CFF278C0E24404F2229C
:101C28009060D912037E9060D312038A1201EC905F
:101C380060D91203969060D31203A200000000122C
:101C48001FDA9060D7E0FEA3E0FFE4FCFD1201EC90
:0E1C58009060DD120396E49060D7F0A3F022B6
:10172A00E47FF47E01FDFC121FDAC3120347500363
:10173A00301B6C301B0C9060C41203A20000000026
:10174A00801CE47F607EEAFDFC9060D912038A1255
:10175A000207121FDA1202929060C4120396906076
:10176A00D91203A2000000009060DD1203A200005B
:10177A000000C21BE47FFF7EFFFDFC9060C41203E1
:10178A008AC3120347400A9060C41203A20000FFF2
:0F179A00FF9060C412037E90607C120396D2060B
:0117A900221D
:0617D500C1194160A300F0
:101E630012037EEF2401FFE43EFEE43DFDE43CFC6F
:101E73002212037E1201F9E47B64FAF9F8C3020328
:081E83004712038AC302034762
:100EC300C39060B1E094E89060B0E09403400F30C9
:100ED300180C121EC6C218E49060B0F0A3F0E47FB1
:100EE300E87E03FDFC9060AC121E8440657F187E93
:100EF300C67D9A7C3B90606C121E84500C90606C93
:100F0300121E6390606C1203967F7F7E967D987CA1
:100F130000906070121E84500C906070121E6390DB
:100F230060701203969060AC12037EC3EF94E8FFE7
:100F3300EE9403FEED9400FDEC9400FC9060AC1283
:020F4300039613
:100F45009060A3E004F0E0C3940A4004E4F0D218F2
:100F55009060A412038A90606C121E74500E90600B
:100F65006C12037E9060A4120396D20A9060A812B8
:100F7500038A906070121E74500E90607012037E8A
:100F85009060A8120396D20BC39060B3E09488904A
:100F950060B2E09413400FE4F0A3F0201904D20BE3
:060FA5008002D20AB2191D
:010FAB002223
:0217DB00C10F3C
:0A1FC9009060C4E0FF75F00FA42241
:10090700E49060C4F0F09060C4E0FFC39403400338
:10091700020A6E74342FF582E43460F583E07003C5
:10092700020A659060C4E0FB75F00FA42402F5820B
:10093700E43460F583E01203FF095C8009618B09E9
:10094700668C096B8E0A0E8F0A02980A06990A0AA4
:100957009A00000A10D200020A10D20A020A10D224
:100967000B020A10D20CEB75F00FA42403F582E4F6
:100977003460F583E0FFE4FCFDFE780812036BEBBF
:1009870075F00FA42404F582E43460F583E07C005D
:100997002FFFEC3E906075F0A3EFF0121FC92405FE
:1009A700F582E43460F583E0906077F0EF75F00F3F
:1009B700A42406F582E43460F583E0906078F012B1
:1009C7001FC92407F582E43460F583E0906079F06D
:1009D700EF75F00FA42408F582E43460F583E09006
:1009E700607AF09060C4E075F00FA42409F582E402
:1009F7003460F583E090607BF0800ED210800AD2DD
:100A0700118006D2128002D20D906033E0D3940099
:100A17004003E014F09060C4E0FF2434F582E4342E
:100A270060F583E4F0742D2FF582E43460F583E4F8
:100A3700F074302FF582E43460F583E4F0FE7F0F25
:100A4700C006C007FD9060C4E075F00FA42400F94C
:100A5700746035F0FA7B01D007D00612045290601B
:070A6700C4E004F002090DD8
:010A6E002265
:100A6F0030003CC2009060EBE0703404F0FF1204E1
:100A7F007E7F0212047E7F0712047E120B907F0985
:100A8F0012047E7F0B12047E7F1412047E121B5DF4
:100A9F007F0E12047E7F1012047E7F1112047E30AF
:100AAF000307C2037F0412047E300407C2047F05CC
:100ABF0012047E300107C2017F0112047E3002074B
:100ACF00C2027F0212047E300607C2067F0712049D
:100ADF007E300705C207120B90300807C2087F0946
:100AEF0012047E300A07C20A7F0B12047E300B07F6
:100AFF00C20B7F1412047E300F07C20F7F11120436
:100B0F007E300C23C20C9060EEE0701B78C47C60CA
:100B1F007D017B017A607975FE7F0712011E121E1F
:100B2F008B9060EE7401F0300E07C20E7F1012042E
:100B3F007E301019C21090606C1203A200000000EA
:100B4F009060AC1203A200000000121EC6301119F3
:100B5F00C2119060701203A2000000009060AC12EE
:100B6F0003A200000000121EC6300507C2057F0653
:100B7F0012047E300D0AC20D121B5D7F0F12047E10
:0C0B8F00227F0812047E7F1A12047E22CE
:1017DD0044603F00000000602860430000000000EE
:1017ED0000000000000000000000000000000000EC
:1017FD0000000000000000000000000000000000DC
:0B180D0000000041606B0041603E00E5
:101B1000FFEE34F9FEE434FFFDE434FFFCE4FAF9AF
:101B2000F8120207E4229060C7E0FEA3E0FF22FA69
:101B3000F9F8120292AD07C322FFEE34FAFEE43444
:101B4000FFFDE434FFFCE42225E02443F582E43485
:0D1B500060F58322FDFC12038AC3020347E7
:04188900AB07AA06F9
:10188D00E49060C7F0A31203A200000000AE02AF07
:10189D000390606BE0FD04F0ED121B48EEF0A3EF3A
:1018AD00F090606BE0C394144002E4F0E49060C7E4
:1018BD00F09060C812038A9060C7E0121B48E0FEEA
:1018CD00A3E0FFE4FCFD1201EC9060C812039690BA
:1018DD0060C7E004F0E0B414D8E47B14FAF9F89092
:0818ED0060C812037E020292A2
:101F5700E4FDED121B48EEF0A3EFF00DEDB414F223
:011F67002257
:08078E009060C7EEF0A3EFF04C
:10079600E4FDC3EF94C5EE940B500A121B26945544
:1007A600EE940150057DFF020904D3EF94B9EE944F
:1007B600074005E4FD020904D3EF9433EE94045098
:1007C600057D64020904D3EF94B9EE9407501FEF38
:1007D60094D0EE94064017121B26EF24307B12129B
:1007E6001B107BE9121B2F74129DFD020904121BBC
:1007F60026D394D0EE9406502AEF9427EE94064022
:10080600229060C7A3EF24D97B22121B107BA9126A
:100816001B2F74229DFDC3941240030209047D120E
:10082600020904121B26D39427EE9406502DEF944A
:10083600A8EE940540259060C7A3EF2458121B39F3
:100846007B33121B1E7B7F121B2F74339DFDC394BB
:100856002240030209047D22020904121B26D394B6
:10086600A8EE9405502AEF944AEE94054022906033
:10087600C7A3EF24B6121B397B44121B1E7B5E12E4
:100886001B2F74449DFDC3943350737D33020904BA
:10089600121B26D3944AEE9405502DEF94BCEE9489
:1008A6000440259060C7A3EF2444FFEE34FB121BDF
:1008B6003D7B54121B1E7B8E121B2F74549DFDC351
:1008C6009444503A7D448036121B26D394BCEE9451
:1008D60004502BEF9433EE940440239060C7A3EFAB
:1008E60024CDFFEE34FB121B3D7B64121B1E7B895D
:1008F600121B2F74649DFDC3945450027D54AF05A2
:0109060022CE
:10156F00E49060C4F0A3F0A3F07F03121CDA12150D
:0C157F00FC1218899060C5EEF0A3EFF09C
:10158B0090603EE070327FF47E01A3121B54402822
:10159B0090603F1203A2000000001215FC121F57AF
:1015AB009060F4E0FEA3E0FF9060C5EEF0A3EFF0D7
:0815BB001215E690603E04F0F9
:1015C300E47FE87E0390603F121B54401590603F18
:1015D3001203A2000000009060C5E0FEA3E0FF122A
:0215E30015E60B
:1015E5002212078E9060C4EFF0906087F0E490605F
:1015F500C5F0A3F0D208221210889060F4EEF0A393
:03160500EFF022E1
:02181800C19C71
:101A1500E49060E9F0A3F09060C6E0906085F090F6
:101A250060C4E0FFA3E0906082CFF0A3EFF0D20E98
:101A3500D202229060E512037E9060E112038A12C1
:101A450002929060E51203969060E502037E906035
:101A5500C4EEF0A3EFF09060C4A3E0FF121EA9A3AB
:061A6500EFF09060E522A5
:101F17007C0A7D50120425E47B0AFAF9F812029232
:091F2700E4FB7A10F9F8020292C1
:101EA900EFC3949640047E6480107E007C007D64BC
:0C1EB90012016F7D96120181AE07AF068A
:011EC50022FA
:10143900E49060C4F0A3F0A3F07F01121CDA90607D
:10144900E512038AC000C001C002C003121088E47B
:10145900FCFDD003D002D001D0001201EC9060E570
:101469001203969060E112037EEF2401FFE43EFE31
:10147900E43DFDE43CFC9060E1120396301C20122F
:101489001A38121F17121A531203A20000000090F3
:1014990060E11203A200000000121A15C21C22C347
:1014A9009060EAE094D09060E9E09407401D121A38
:1014B90038121F17121A531203A20000000090607D
:0B14C900E11203A200000000121A153F
:0114D40022F5
:1014EF00021ABEE493A3F8E493A34003F68001F23B
:1014FF0008DFF48029E493A3F85407240CC8C333FE
:10150F00C4540F4420C8834004F456800146F6DFCC
:10151F00E4800B01020408102040809017AAE47E9B
:10152F00019360BCA3FF543F30E509541FFEE493C1
:10153F00A360010ECF54C025E060A840B8E493A388
:10154F00FAE493A3F8E493A3C8C582C8CAC583CAB3
:10155F00F0A3C8C582C8CAC583CADFE9DEE780BE6B
:01181A0000CD
:10004E00E709F608DFFA8046E709F208DFFA803E94
:10005E0088828C83E709F0A3DFFA8032E309F60881
:10006E00DFFA8078E309F208DFFA807088828C83E9
:10007E00E309F0A3DFFA806489828A83E0A3F6089D
:10008E00DFFA805889828A83E0A3F208DFFA804C77
:10009E0080D280FA80C680D4806980F2803380104E
:1000AE0080A680EA809A80A880DA80E280CA8033B7
:1000BE0089828A83ECFAE493A3C8C582C8CCC5832F
:1000CE00CCF0A3C8C582C8CCC583CCDFE9DEE780FF
:1000DE000D89828A83E493A3F608DFF9ECFAA9F07E
:1000EE00EDFB2289828A83ECFAE0A3C8C582C8CCD4
:1000FE00C583CCF0A3C8C582C8CCC583CCDFEADEED
:10010E00E880DB89828A83E493A3F208DFF980CC4E
:10011E0088F0EF60010E4E60C388F0ED2402B40447
:10012E000050B9F582EB2402B4040050AF232345EE
:06013E00822390009E7375
:10014400BB010689828A83E0225002E722BBFE02B9
:09015400E32289828A83E49322EC
:10015D00BB010689828A83F0225002F722BBFE0181
:02016D00F3227B
:10016F00EF8DF0A4A8F0CF8CF0A428CE8DF0A42EA4
:02017F00FE225E
:10018100BC000BBE0029EF8DF084FFADF022E4CC62
:10019100F875F008EF2FFFEE33FEEC33FCEE9DEC2B
:1001A100984005FCEE9DFE0FD5F0E9E4CEFD22ED71
:1001B100F8F5F0EE8420D21CFEADF075F008EF2FBB
:1001C100FFED33FD4007985006D5F0F222C398FDAC
:0501D1000FD5F0EA2249
:1001D600C5F0F8A3E028F0C5F0F8E58215827002B4
:0601E6001583E038F02251
:0D01EC00EF2BFFEE3AFEED39FDEC38FC2262
:0E01F900C3EF9BFFEE9AFEED99FDEC98FC2201
:10020700E88FF0A4CC8BF0A42CFCE98EF0A42CFC96
:100217008AF0EDA42CFCEA8EF0A4CDA8F08BF0A414
:100227002DCC3825F0FDE98FF0A42CCD35F0FCEB73
:100237008EF0A4FEA9F0EB8FF0A4CFC5F02ECD3938
:0F024700FEE43CFCEAA42DCE35F0FDE43CFC22A5
:1002560075F008758200EF2FFFEE33FECD33CDCC5F
:1002660033CCC58233C5829BED9AEC99E5829840E2
:100276000CF582EE9BFEED9AFDEC99FC0FD5F0D6BF
:10028600E4CEFBE4CDFAE4CCF9A88222B800C1B9E9
:100296000059BA002DEC8BF084CFCECDFCE5F0CB27
:1002A600F97818EF2FFFEE33FEED33FDEC33FCEB60
:1002B60033FB10D703994004EB99FB0FD8E5E4F91B
:1002C600FA227818EF2FFFEE33FEED33FDEC33FC08
:1002D600C933C910D7059BE99A4007EC9BFCE99AFC
:1002E600F90FD8E0E4C9FAE4CCFB2275F010EF2F41
:1002F600FFEE33FEED33FDCC33CCC833C810D70741
:100306009BEC9AE899400AED9BFDEC9AFCE899F87B
:0E0316000FD5F0DAE4CDFBE4CCFAE4C8F9220E
:0D032400EF4BFFEE4AFEED49FDEC48FC22D8
:10033100EB9FF5F0EA9E42F0E99D42F0EC6480C843
:0603410064809845F022E3
:10034700EB9FF5F0EA9E42F0E99D42F0E89C45F00C
:010357002283
:10035800E8600FECC313FCED13FDEE13FEEF13FF83
:03036800D8F122A7
:10036B00E8600FEFC333FFEE33FEED33FDEC33FCF0
:03037B00D8F12294
:0C037E00E0FCA3E0FDA3E0FEA3E0FF22F2
:0C038A00E0F8A3E0F9A3E0FAA3E0FB22F6
:0C039600ECF0A3EDF0A3EEF0A3EFF022DA
:1003A200A8828583F0D083D0821203B91203B912D6
:1003B20003B91203B9E473E493A3C583C5F0C583FB
:1003C200C8C582C8F0A3C583C5F0C583C8C582C8A5
:0103D2002208
:0C03D300A42582F582E5F03583F5832235
:1003DF00F8E0FBA3A3E0F925F0F0E58215827002A7
:0703EF001583E0FA38F0224B
:0903F600EBF0A3EAF0A3E9F02208
:1003FF00D083D082F8E4937012740193700DA3A38D
:10040F0093F8740193F5828883E4737402936860A0
:06041F00EFA3A3A380DFA0
:10042500EC8EF0A4CCC5F0CCCDF8EFA4CEC5F02D64
:10043500FDE43CFCE8A42EC8C5F03DFDE43CFCEF22
:0D044500A4FFE5F028FEE43DFDE43CFC22B0
:10045200EF4E6012EF60010EEDBB010B89828A83C1
:10046200F0A3DFFCDEFA2289F05007F709DFFCA9CE
:0C047200F022BBFEFCF309DFFCA9F02225
:00000001FF
